:400000000040002011000000491300004913000080B500AF01F0C6F980B584B000AF021CFB1D1A70204A3B1C0B3312781A701F4A3B1C0A3312781A700423013BFB6018E051
:400040001B4B1868391C0B31FA68131C5B009B18C3185B780B70164B1868391C0A31FA68131C5B009B18C3189B780B70FB68013BFB60FB68002B0ADB0D4B1968FA68131CF1
:400080005B009B185B5CFA1D12789A42D8D9094B3A1C0B3212781A60074B3A1C0A3212781A60BD4604B080BDCCF1FF0FCDF1FF0FE00000201CFF0B4020FF0B4080B500AF3B
:4000C000284B12221A603020FFF7A6FF264B274A1278D2B21A60052003F09AF9244B35221A6002F01BFFFA235B00181C03F06CF9012002F023FF1F4B1F4A1A601F4B802201
:40010000D2051A601E4B1F4A1A601F4B1E4A126808218A431A60FA23DB00181C02F0B8FE1A4B181C03F074F9194BE82252011A60184B194A1A60194BC82252011A60154BA3
:40014000174A1A60174B822212061A60164B8022D2021A60154B41221A60154B40221A60BD4680BD3000104028FF0B40FDF1FF0F2CFF0B4004010B40060000800C020B406F
:400180007C002E406A2D00006CF02E40DC050000040301400000014041FF00800003014040FF008008010B4000010B40180101400401014080B582B000AF72B64B4B002291
:4001C0001A60FB1D00221A7023E0FB1D1A78131C5B009B185B00464A9B183B603B681A78597809020A43997809040A43DB781B0613431A1C3B6819795B791B020B439BB214
:40020000101C191C01F052F9FB1D1A78FB1D01321A70FB1D1B78012BD7D9364A364B101C191C01F053F9354BEE2212061A60344B992212041A60334B01221A60324B334A7B
:400240001A60334B02221A60324B20221A60324BC42292021A60314B20221A60304B40221A60304BE02292031A602F4BC1221A602E4BD82212041A602D4B01221A602D4BBC
:40028000992212041A602C4B992212041A602B4B992212041A602A4B802212061A60294B992212041A60284B274A1278D2B202210A43D2B21A70254B244A1278D2B23C214F
:4002C0008A43D2B214210A43D2B21A701E4B1E4A1278D2B216210A43D2B21A70FFF7EEFE01F034F9BD4602B080BDC0466CF02E409C5D0100A85D0100AC5D0100000002409E
:400300000001024000000440080004400200D8000C000440000104400801044018010440000204400802044000030440080304401803044000500F4010500F4020500F403B
:4003400024500F4030500F4000700F4001700F4010B5064C2378002B07D1054B002B02D0044800E000BF0123237010BD2804002000000000A057010008B5084B002B03D0A9
:400380000748084900E000BF07480368002B03D0064B002B00D0984708BDC04600000000A05701002C040020C80000200000000090B589B002AF786039607B68262B00D17B
:4003C000CFE01DD8212B00D194E00DD8022B00D17BE002D8012B39D05BE1032B00D17CE0042B00D17EE054E1232B00D197E000D290E0242B00D19AE0252B00D1A9E048E10C
:400400002C2B00D114E10BD8282B00D1E6E000D2D9E0292B00D1FBE02A2B00D100E138E14C2B00D11AE106D8412B00D105E1422B00D10EE12DE182225200934200D11EE10D
:400440000622FF32934200D11EE122E13C1C1434002001F08DFA031C23803B1C14331B88002B07D03B1C14331B888B4A101C191C05F054F8894B181C05F050F83B1C0833AF
:40048000181C05F0CFFF3B1C173306221A7012E03B1C17331B78013B3A1C0832D35C804A101C191C05F03AF83B1C17331A783B1C1733013A1A703B1C17331B78002BE7D1CF
:4004C000784B181C05F0A6F8E3E03B681B78764A101C191C05F022F8DBE0744B181C05F099F8D6E03B681B78714A101C191C05F015F8CEE03B681B78191C3B685B781A1C46
:400500003B689B783868C078041C6A48009405F005F8BEE0684B181C05F07CF8B9E03B681B68664A101C191C04F0F8FFB1E03B683B613B691B78191C3B695B781A1C3B699F
:400540009B783869C078041C5D48009404F0E6FF9FE03B681B785B4A101C191C04F0DEFF97E0594B1B78594A101C191C04F0D6FF554B1B78042B25D1554B181C05F04AF8F3
:40058000012002F043FA002002F01AFA012002F063FAC04602F0DCFA021C4E4B196880231B020B4001D0012300E00023D318002BF0D102F075FA02F091FB02F031FB02F086
:4005C0008BFF66E065E03B681B78434A101C191C04F0A4FF012002F019FA5AE03F4B181C05F018F83C1C1434002001F0C1F9031C23803B1C14331B88002B08D03B1C1433F9
:400600001B88374A101C191C04F088FF41E040E03B681B78334A101C191C04F07FFF38E03B681B78304A101C191C04F077FF30E02E4B181C04F0EEFF2BE02D4B5B781A1C36
:400640002B4B1B782B49081C111C1A1C04F066FF1FE0294B181C04F0DDFF1AE03B689B89264A101C191C04F059FF3B680433181C00F0E2FA3B68186810F0A0F809E0204BDF
:40068000181C04F0C7FF04E01E4B181C04F0C2FFC046BD4607B090BD0058010024580100545801005C580100605801007C58010090580100A8580100E858010004590100BA
:4006C0002C590100705901009625002088590100C059010008022440CC590100F4590100185A01003C5A0100545A01007C5A01009C250020A45A0100C45A0100E05A010027
:40070000FC5A0100245B010080B500AF02F080FD021C8023DB00134019D00E4B1B78032B0BD10D4B1B7801225340DAB20A4B1A70094B1B78181C02F069F9084B1B685A1CFA
:40074000064B1A608023DB00181C02F06FFDBD4680BDC04696250020CC0000204804002080B500AF02F034FC0E4B181C02F0C0FA0120012102F06AFC0120012102F096FC84
:40078000094B0120191C02F0FBFC012002F084FD80235B00181C02F0C1FC02F0EFFBBD4680BDC04609070000FF7F000090B583B000AF62B602F0A0F93A4B181C04F02AFFE1
:4007C000012002F0FDF8012002F020F9012002F043F9354B181C01F083F8344B181C00F0FBFE334B181C01F0F5FB01F0AFFE02F007F8FFF7B5FF2F4B1B78012B33D0FC1D99
:40080000032005F007FE031C237072B6BC1D07F0D4F8031C2370FB1D1B78032B1CD1BB1D1B78042B03D0BB1D1B78062B1AD102F08FF9021C204B196880231B020B4001D059
:40084000012300E00023D318002B02D102F00EFE08E002F0F1FD05E0BB1D1B78022B01D002F0EAFD62B6134B1B78022B16D1134B1B68002B12D0114B00221A60104B1B887A
:40088000012B03D100F0B4F805F0D0FD0D4B1B88012B03D100F084FA05F0C8FD05F0C6FDA9E7C0464C5B0100B1030000D50C0000C9080000962500200802244048040020A6
:4008C000500400206804002090B585B000AF786039603B1C0F333A6892781A70394A7B68101C191C04F01AFE7B68793BFF3B0B2B5DD89A00344BD3181B689F463B1C0F337B
:400900001B78324A101C191C04F008FE3B1C0F331B78002B03D12E4B01221A804EE04DE03B1C0F331B782B4A101C191C04F0F6FD3B1C0F331B78002B03D1254B00221A8051
:400940003CE03BE0244B181C04F064FE36E03B1C0F331B78214A101C191C04F0DFFD3B685B68181C00F068F93B1C0F331B78032B1CD13B685B681B683C1C0C34181C01F091
:4009800089F8031C2380164B3A1C0C3212881A803B1C0C331B88002B08D0124B01221A60114B1B685A1C104B1A6007E006E00F4B181C04F02FFEC04600E0C046BD4605B04B
:4009C00090BDC0467C5B0100385C0100905B010050040020B85B0100E45B0100045C0100D4000020D000002048040020205C0100B0B588B000AF784B1B88002B00D1D8E0EF
:400A0000764B1B685A1E754B1A60744B1B68002B00D0CEE0704B1B881A1C704B1A60704B1B78002B30D06E4B00221A7001F05AFF01F0E6FE022001F0F1FE012001F02CFFD0
:400A4000031C9B029B0AFB613C1C1A34002001F023FF031C23803B1C1A3300229B5E0020191C01F04DFF031C7B617B69181C0A2102F066FE031C181C04F024FB031C0C1C8C
:400A8000584A1360546023E03C1C1A34002001F003FF031C23803B1C1A3300229B5E0020191C01F02DFF031C7B617B69181C0A2102F046FE031C181C04F004FB031C0C1CBD
:400AC000484A13605460474B5C681B68BB60FC60454B1B781A1C012313401DD0414B5C681B68181C211C354B334A03F0F3FC031C0C1C181C211C324A324B03F0C7F9031C8A
:400B00000C1C181C211C304A304B02F09DFE031C0C1CBB60FC6004E0324B5C681B68BB60FC602B4B2B4CBB60FC60B868F96802F06BFE031C2D4A101C191C00F0ADF8BC1D18
:400B40002B4B294D1A785B781B021A4300231204120C1B0C1B041343181C002105222B1C01F010FC031C2380BB1D1B88002B0AD0BB1D1B881F4A101C191C04F0CFFC1E4B48
:400B800000221A8015E0B868F96804F067FA031C9BB21AB2144B1B78191C01230B4001D0462300E043231549081C111C1A1C04F0B5FCBD4608B0B0BD00000000000022404C
:400BC000000000000000144000000000000040400000000000405040D4000020D0000020D60000206004002054040020550400209C250020685C010050040020945C0100F7
:400C000080B586B000AFF860B9607A6000237B6109E0BB685A1CBA601B78181C01F082FF7B6901337B617A697B689A42F1DB7B68181CBD4606B080BD80B584B000AF78601C
:400C40003B1C0E3300221A8013E07B681A683B1C0E3300215B5ED3181B780D4A101C191C04F05CFC3B1C0E331A883B1C0E3301321A803B1C0E3300215A5E7B689B889A42E2
:400C8000E3DB044B181C04F0C5FCBD4604B080BDB05C0100B85C010080B582B000AF786039603B68DAB27B681A707B6801333A68120AD2B21A707B6802333A68120CD2B2C6
:400CC0001A707B6803333A68120ED2B21A70BD4602B080BD80B584B000AF786039603B1C0F333A6892781A70264A7B68101C191C04F014FC7B681B3BFF3B052B38D89A0032
:400D0000214BD3181B689F463B1C0F331B781F4A101C191C04F002FC3B1C0F331B78002B02D11B4B01221A803B1C0F331B78002B03D1184B01221A8021E020E03B1C0F33DA
:400D40001B78154A101C191C04F0E8FB3B1C0F331B78002B02D10E4B00221A803B1C0F331B78002B03D10B4B00221A8007E006E00A4B181C04F04EFCC04600E0C046BD464A
:400D800004B080BDBC5C0100385D0100D05C0100680400206A040020F85C0100205D010090B58BB002AF01F02BFDDB4B1B78DBB2002B00D08EE2D94B1B685A1ED74B1A60C3
:400DC000D64B1B68002B00D084E2002001F0F8FDD24B03221A603C1C1E34002001F05CFD031C23803B1C1E3300229B5E0020191C01F086FD031CBB61C94B1B88012B00D0DC
:400E000039E2BB69682B2BDCB04CAF4B3B617C61B86904F057F9031C0C1C181C211C3A697B6903F033F8031C0C1CBB60FC60B868F968A74AA74B03F04DFB031C0C1C181CD0
:400E4000211CA54AA54B02F0FFFC031C0C1C181C211C02F0D9FC031CDAB2B24B1A700AE2BB69CC2B2DDC9E4B9E4C3B617C61BB69693B181C04F026F9031C0C1C181C211C95
:400E80003A697B6903F002F8031C0C1CBB60FC60B868F9688E4A8F4B03F01CFB031C0C1C181C211C8A4A8B4B02F0CEFC031C0C1C181C211C02F0A8FC031CDAB2994B1A703E
:400EC000D9E1BA6998235B009A422DDC844B854C3B617C61BB69CD3B181C04F0F3F8031C0C1C181C211C3A697B6902F0CFFF031C0C1CBB60FC60B868F968754A754B03F012
:400F0000E9FA031C0C1C181C211C774A774B02F09BFC031C0C1C181C211C02F075FC031CDAB2804B1A70A6E1BA69CA235B009A422EDC6B4B6B4C3B617C61BB69323BFF3B66
:400F4000181C04F0BFF8031C0C1C181C211C3A697B6902F09BFF031C0C1CBB60FC60B868F9685B4A5B4B03F0B5FA031C0C1C181C211C5F4A5F4B02F067FC031C0C1C181CC0
:400F8000211C02F041FC031CDAB2664B1A7072E1BA69F2235B009A422EDC574B574C3B617C61BB69963BFF3B181C04F08BF8031C0C1C181C211C3A697B6902F067FF031CC5
:400FC0000C1CBB60FC60B868F968414A414B03F081FA031C0C1C181C211C494A494B02F033FC031C0C1C181C211C02F00DFC031CDAB24C4B1A703EE1BA6992239B009A425F
:401000002EDC374B374C3B617C61BB69E63BFF3B181C04F057F8031C0C1C181C211C3A697B6902F033FF031C0C1CBB60FC60B868F968274A274B03F04DFA031C0C1C181CF8
:40104000211C314A314B02F0FFFB031C0C1C181C211C02F0D9FB031CDAB2324B1A700AE1BA69AB239B009A4260DC1D4B1D4C3B617C61BB692C4A9B18181C04F023F8031C98
:401080000C1C181C211C3A697B6902F0FFFE031C0C1CBB60FC60B868F9680D4A0D4B03F019FA031C0C1C181C211C194A194B02F0CBFB031C0C1C181C211C02F0A5FB031C8D
:4010C000DAB2184B1A70D6E00000000000405A4000000000000024400000000000000000000000000000594000000000000034400000000000003E40000000000000544064
:40110000000000000000444000000000000049400000000000004E4098250020D8000020680400206C040020B7FDFFFFBA697A4B9A422EDC6B4C6A4B3B617C61BB69774AD9
:401140009B18181C03F0BEFF031C0C1C181C211C3A697B6902F09AFE031C0C1CBB60FC60B868F968604A614B03F0B4F9031C0C1C181C211C5E4A5F4B02F066FB031C0C1C36
:40118000181C211C02F040FB031CDAB2644B1A7071E0BA69634B9A422EDC574B574C3B617C61BB69604A9B18181C03F08BFF031C0C1C181C211C3A697B6902F067FE031C00
:4011C0000C1CBB60FC60B868F968474A474B03F081F9031C0C1C181C211C494A494B02F033FB031C0C1C181C211C02F00DFB031CDAB24B4B1A703EE0BA694C4B9A422EDC05
:40120000414B424C3B617C61BB69494A9B18181C03F058FF031C0C1C181C211C3A697B6902F034FE031C0C1CBB60FC60B868F9682D4A2E4B03F04EF9031C0C1C181C211CAF
:40124000334A344B02F000FB031C0C1C181C211C02F0DAFA031CDAB2314B1A700BE0BA69344B9A4203DC2E4B0A221A7003E0BB69DAB22B4B1A70BC1D2F4B294A00921A7862
:401280005B781B021A4300231204120C1B0C1B041343181C00210022012300F08FFA031C2380BB1D1B88002B0AD0BB1D1B88234A101C191C04F032F9214B00221A8006E022
:4012C000174B1B781F4A101C191C04F027F9012001F076FBBD4609B090BDC046C046C0460000000000805B40000000000000244000000000008051400000000000005E404F
:401300000000000000005440000000000040504000000000008056401A03000053FDFFFF6C04002092030000E5FCFFFFD30300006DFCFFFFE70300009C250020505D01000E
:4013400068040020785D010080B500AFFEE7C04680B584B000AF7860104B1A687B68D3181A1C0F4BD21A8023DB009A4209DC0B4B1B68FB60094B1A687B68D218074B1A6043
:4013800007E004F07FF8031C0C221A6001235B42FB60FB68181CBD4604B080BDDC000020B025002080B586B000AF224B7B61224B3B61204B7B6135E03B691B68FB603B698E
:4013C0005B68BB603B699B683B6000237B600CE0FB681A68BB681A60BB680433BB60FB680433FB607B6804337B607A683B689A42EED13B69DB683B6000237B6008E0BB6857
:4014000000221A60BB680433BB607B6804337B607A683B689A42F2D13B6910333B617B69013B7B617B69002BC6D104F031F8FFF7BDF9FEE701000000B064010080B582B032
:4014400000AF154B144A126801218A431A6000237B600FE07B68032B04D8104B7A689200D35800E00E4B0F4A796889008B507B6801337B607B682F2BECD9FEF79BFE0A4B9A
:4014800000221A60044B044A126801210A431A60BD4602B080BDC04600001040000000004913000000000020C000002080B582B000AF786039607A683B68101C00211A1C5D
:4014C00004F024F8BD4602B080BDC04680B586B000AF7860396000233B6100237B612EE07B699B007A68D3181B68BB603B1C0F33BA681A70BB68FF229343BB6017E03B698E
:401500005B003A68D3181B781A1CBB68D3183A69520039688A1852781A703B6901333B613B1C0F331A783B1C0F33013A1A703B1C0F331B78002BE2D17B6901337B617B6981
:40154000002BCDD0BD4606B080BDC04680B500AF094B03221A60094B03221A60084B094A1A60094B074A1A60084B00221A60012000F00EF8BD4680BD300030403000314017
:4015800000033A400100020040033A40000E3F4080B584B000AF021CFB1D1A700B4B1B68FB60FB1D1B78002B05D0FB68802212061343FB6003E0FB685B005B08FB60034B2F
:4015C000FA681A60BD4604B080BDC04680033A4080B500AFBD4680BD80B582B000AF7860024B7A681A60BD4602B080BD7004002080B586B000AF3B60FB1D1870BB1D197021
:401600007B1D1A703B1C163300221A80FB1D1B78002B0BD1BB1D1B78002B07D17B1D1B78012B03D13B681B78642B04D93B1C163301221A8021E0FB1D1B78134ADB00D31813
:401640005A883B1C08331A817B1D1B789AB23B1C08339A803B1C08333A681A603B1C0833181C0021002200230FF000FD031C002B03D03B1C163301221A803B1C16331B88A5
:40168000181CBD4606B080BDB05D010090B587B000AF78603B1C173300221A703B1C163300221A70414B1B68002B00D176E07B689A8920239A4265D13B1C17331B783C4AE0
:4016C000DB00D3185B885A1E3A49131C9B009B189B00CB185A6880235B01134045D07B681A1D7B683C1C1634101C00211A1C40230FF0BCFC031C23703B1C16331B78002BD6
:4017000037D13B1C0C337A6812881A803B1C0C333A1C173212789A703B1C0C330022DA703B1C0C3300225A607B685B68181C00F0B1F9031C1A1C012313409BB2002B09D027
:401740001A4B1B688D2251003A1C0C32081C111C98470EE0154B1B681C22111CFF313A1C0C32081C111C984703E03B1C163306221A70114B1B78DBB201229343DAB20E4BFE
:401780001A700BE03B1C17331A783B1C173301321A703B1C17331B78002B88D03B1C16331B78181CBD4607B090BDC04670040020B05D0100A05E01009F25002090B587B0F7
:4017C00000AF3C1D2080081C111C1A1CFB1C1870BB1C19707B1C1A703C1C1634FB1C1878BB1C19787B1C1A78BB6AFFF701FF031C23803B1C16331B88002B44D1254B1B785D
:40180000022B05D03B1C1633832252001A803AE02023002B13D020235A1E1F49131C9B009B189B00CB1808339B68181C00F032F9031C1A1C012313409BB2002B05D13B1CEE
:4018400016330422FF321A801DE0FB1C1B78134ADB00D3185A883B1C08331A813B1C0833BA6A1A607B1C1B789AB23B1C08339A803C1C16343B1D3A1C08321868111C0EF0CE
:4018800053FF031C23803B1C16331B88181CBD4607B090BD96250020A05E0100B05D010080B500AF064B00221A70064B00221A70054B00221A7000F009F8BD4680BDC0469D
:4018C0009F250020982500209E25002080B500AFFFF77EFE00F070FB00F072FBBD4680BD90B585B000AF78603B1C0E3301221A80194B1B78002B04D1FFF7D2FF164B01225E
:401900001A707B68002B1FD0144B7A681A603C1C0E34134A134B101C191C172204F09CFD031C23803B1C0E331B88002B0CD10E4B01221A703C1C0E340C4B181C2021152241
:401940000FF060FB031C23803B1C0E331B88181CBD4605B090BDC046780400208C250020FD1C0000A004002096250020A05E010090B585B000AF021CFB1D1A70294B1B78BD
:40198000042B42D1284B1B78DBB21A1C042313403BD1FB1D1B78002B0BD1244B1E221A82224B5B6820221A80204B5B6830225A8010E0FB1D1B78012B0CD11C4B1E221A824C
:4019C0001A4B5B68C822D2001A80184B5B68FA2212015A80164BFA1D12781A703C1C0E34124B181C0DF050FD031C23803B1C0E331B88002B08D10C4B1B78DBB20422134345
:401A0000DAB2094B1A7005E004E03B1C0E33832252001A803B1C0E331B88181CBD4605B090BDC046962500209F250020140100209E25002080B584B000AF78600A1CFB1CCC
:401A40001A700023BB60BB68002B20D07B689A79BB681A703B1C0F3300221A7012E03B1C0F331B780133BA68D3183A1C0F32127879688A5C1A703B1C0F331A783B1C0F33E3
:401A800001321A703B1C0F331B78052BE7D9BD4604B080BD80B582B000AF78607B681B781A1C7B6801331B781B029BB213439BB2181CBD4602B080BD90B585B000AF7860E1
:401AC0003B1C0F3300221A707B689A890B239A4237D17B681A1D7B683C1C0F34101C00211A1C40230FF0C2FA031C23703B1C0F331B78002B1DD17B685B68181CFFF7CAFFC0
:401B0000031C1A1C022313409BB2002B08D0104B1B68822251007A68081C111C984708E00B4B1B680622111CFF317A68081C111C9847084B1B78DBB201229343DAB2054B03
:401B40001A703B1C0F331B78181CBD4605B090BD8C2500209F25002090B585B000AF78603C1C0F347B68181CFFF7A6FF031C23703B1C0F331B78002B0ED1264B1B78DBB2FA
:401B80001A1C0123134007D03C1C0F347B68181CFFF77CFD031C23703B1C0F331B78002B0ED11C4B1B78DBB21A1C0123134007D03C1C0F347B68181C00F06EFA031C2370D1
:401BC000144B1B78DBB21A1C012313401FD13B1C0F331B78002B16D03B1C083312229A707B689A893B1C08331A803B1C08333A1C0F321278DA707B683A1C08321868111C6D
:401C00000EF068FD03E07B6818680EF0D7FDBD4605B090BD9F25002080B582B000AF78607B68002B0AD0074B1B78DBB21A1C0123134003D07B68181C00F01CFCBD4602B0A4
:401C400080BDC0469F25002080B500AF034B00225A70024B00221A70BD4680BD9C25002080B582B000AF7860BD4602B080BDC04680B500AFBD4680BD80B584B000AF78600B
:401C80003B1C0E3300221A707B689B79002B1CD13B1C0F3300221A7012E03B1C0F331B787A68D35C002B04D03B1C0E3301221A700BE03B1C0F331A783B1C0F3301321A70AD
:401CC0003B1C0F331B78052BE7D93B1C0E331B78181CBD4604B080BD80B582B000AF021CBB1D1A80BD4602B080BDC04680B582B000AF7860BD4602B080BDC04680B584B088
:401D000000AF021C3960FB1D1A709F4B1B78DBB201221343DAB29C4B1A70FB1D1B78712B00D916E19A00994BD3181B689F463B1C0C3307221A703B1C0C3300225A703B1C11
:401D40000C33181C05F068FE3B1C0C3307221A703B1C0C3301225A703B1C0C33181C05F05BFE8B4B1B68181CFFF786FF031C002B11D0874B1B68181C04F05CFB844B1B6858
:401D8000181C0021FFF756FE814B1B68181C0121FFF750FE0DE07F4B181C04F04BFB7D4B181C0021FFF746FE7A4B181C0121FFF741FE03200DF02AFA774B04221A70C9E070
:401DC0003B68181CFFF74CFFC4E03B681A78734B1A70BFE06C4B1B78DBB21A1C202313400ED16F4B1B78102B02D16D4B0522DA706C4B1A786A4B101C191C0DF00FFBA9E016
:401E0000A8E03B68181CFFF771FFA3E03B68181CFFF76CFF604B02221A709BE05E4B04221A7097E05C4B1B78022B41D0564B1B78DBB21A1C012313403AD0534B1B78DBB2D0
:401E40001A1C042313400BD0534B03221A704E4B1B78DBB204229343DAB24B4B1A7027E0494B1B78DBB21A1C082313400BD04A4B04221A70444B1B78DBB208229343DAB25F
:401E8000414B1A7014E0444B1B78032B10D1424B04221A70444B1B78002B09D10120FFF767FD031C002B03D13B4B03221A7051E050E03B681B88181CFFF70EFF4AE0394A2A
:401EC0003B68111C1A1C0223081C111C1A1C03F014FB344B1B781A1C131C5B009B185B00324A9B18324A111C1A1C0623081C111C1A1C03F002FBFFF7BBFE2BE0FFF7A4FE4E
:401F000028E03B685B88162B05D83B1C0E333A6852881A8003E03B1C0E3317221A803B683A1C0E321288198800230904090C1B0C1B040B43181C111C0EF0D8FB0AE03B68ED
:401F4000181CFFF709FE05E03B68181CFFF764FE00E0C0460C4B1B78DBB21A1C112313400FD0094B1B78DBB201229343DAB2064B1A70104B1B68FA1D11783A68081C111CDE
:401F80009847BD4604B080BD9F2500208061010030010020280100209625002098250020840100209C2500209E250020805E0100902500208C25002080B500AFBD4680BD24
:401FC00080B500AF024B00221A80BD4680BDC0463C11002080B582B000AF7860024B7A681A60BD4602B080BD3811002080B586B000AF3B60FB1D1870BB1D19707B1D1A7077
:402000003B1C163300221A80FB1D1B78032B03D8BB1D1B78012B04D93B1C163301221A8030E0FB1D1A78BB1D18781A49131C5B009B181B185B00CB189A883B1C08331A813D
:402040003B1C08331B89002B18D07B1D1B789AB23B1C08339A803B1C08333A681A603B1C0833181C002100220EF0E4FF031C002B08D03B1C163301221A8003E03B1C16335A
:4020800001221A803B1C16331B88181CBD4606B080BDC0464863010090B589B000AF78603B1C1E3300221A703B1C1D3300221A70B04B1B68002B00D155E13B1C1F3300221D
:4020C0001A7045E17B6899893B1C1F331A78AA48131C5B009B185B00C3189B8899420ED07B6899893B1C1F331A78A348131C5B009B185B00C3185B88994200D021E13B1C2A
:402100000C337A6812881A803B1C0C333A1C1F3212789A707B681A1D3B1C0C335A607B6899893B1C1F331A789348131C5B009B185B00C3185B88994200D078E03B1C1F33F2
:402140001B78032B4FD17B685B683C1C1A34181CFFF7A0FC031C23803B1C1A331B88002B41D03B1C1F331A783B1C0833101C01210422FFF73BFF031C002B34D13C1C1834C3
:402180003B1C0833181CFFF785FC031C23803C1C16343B1C08330233181CFFF77BFC031C23807B685B683C1C1A34181CFFF772FC031C23803B1C1A331B88002B13D03A1C03
:4021C0001A323B1C183312881B889A4207D33A1C1A323B1C163312881B889A4203D93B1C1E3380221A703B1C1E331B78002B00D09BE07B681A1D7B683C1C1E34101C00214E
:402200001A1C40230EF032FF031C23703B1C1E331B78002B00D088E0564B1B687E22111CFF313A1C0C32081C111C98477DE07B681A1D7B683C1C1E34101C00211A1C4023B7
:402240000EF014FF031C23703B1C1E331B78002B6BD13B1C1F331A784749131C5B009B185B00CB185B885A1E4449131C9B009B189B00CB185A6880235B0113401FD07B68EA
:402280005B68181CFFF706FC031C1A1C012313409BB2002B09D0374B1B68BC2251003A1C0C32081C111C984709E0324B1B687A22111CFF313A1C0C32081C111C98473B1C1D
:4022C0001F331A782C49131C5B009B185B00CB185B885A1E2949131C9B009B189B00CB185A6880239B0113401FD07B685B68181CFFF7D0FB031C1A1C022313409BB2002B1F
:4023000009D01C4B1B68BD2251003A1C0C32081C111C984709E0174B1B687C22111CFF313A1C0C32081C111C9847154B1B78DBB201229343DAB2124B1A703B1C1D330122A3
:402340001A703B1C1F331A783B1C1F3301321A703B1C1F331B78032B05D83B1C1D331B78002B00D1AEE63B1C1E331B78181CBD4609B090BD3811002048630100A05E010095
:402380009F25002090B589B000AF3C1C0C3420807B603B1C0B3319703B1C0A331A70314B1B78022B05D03B1C1E33832252001A8050E03B1C0B331A782B49131C5B009B186B
:4023C0005B00CB189B885A1E2849131C9B009B189B00CB1808339B68181CFFF75BFB031C1A1C022313409BB2002B05D13B1C1E33822252001A802DE03B1C0B331A781A49F0
:40240000131C5B009B185B00CB185A883B1C10331A813B1C10337A681A603B1C0A331B789AB23B1C10339A803C1C1E343B1C0C333A1C10321868111C0EF06AF9031C238045
:402440003B1C1E331B88002B04D13B1C10331A89074B1A803B1C1E331B88181CBD4609B090BDC0469625002048630100A05E01003C11002080B586B000AF78603B1C1633D5
:4024800000221A702D4B1B68002B54D02C4B1B88002B50D03B1C173300221A7041E03B1C17331A782749131C5B009B185B00CB185A88234B1B889A422CD13A1C0C327B68F2
:4024C000111C1A1C0223081C111C1A1C03F015F83B1C0C333A1C173212789A703B1C0C3300225A60184B1B78DBB201229343DAB2154B1A70124B00221A80104B1B68BE22C9
:4025000051003A1C0C32081C111C98473B1C163301221A703B1C17331A783B1C173301321A703B1C17331B78032B04D83B1C16331B78002BB3D0BD4606B080BD381100202A
:402540003C110020486301009F25002080B500AF064B1B78002B04D100F00AF8034B01221A7000F031F9BD4680BDC0464011002090B585B000AF0F20032100F0C7FE754BE7
:402580000F20191C00F09CFE734B01221A60734B724A1168724A1268002A01DA714A00E0714A0A431A60714B714A1A60714B724A1A60724B00221A60714B724A1A60724B9C
:4025C000704A1A60714B714A1268802149020A431A606F4B6E4A1268802149020A431A606C4B00221A606C4B00221A606B4B11221A606B4B1B687B607A686A4B13407B6082
:402600007B68012213437B60654B7A681A600023FB6097E0644BFA689200D258DC239B0113407B60614AFB68D3181B787A6813437B60FB68002B2AD1FB689B005C4A9B184D
:402640007A681A60584BFA689200D258012313400AD0504B4F4A1168FA680120041C9440221C92B20A431A604F4BFA689200D258022313402BD0484B474A1168FA68012034
:40268000041C9440221C92B20A431A601FE0494B7A688021C9050A431A60434BFA689200D2580123134005D03C4B3C4A126820210A431A603C4BFA689200D258022313408E
:4026C00005D0364B354A126840210A431A60364BFA689200D25880239B00134003D080235B00BB6002E080235B01BB602E4BFA689200D25880235B00134005D12E4BFA68B2
:4027000052000021D15209E0BB68002B00DA01335B1099B2284BFA685200D152BB68274A53438022D2009B18002B01DA244C1B19DB129BB219B2234BFA689200D150FB68D8
:402740000133FB60FB68012B00D863E7BD4605B090BDC046A529000020003A4000003A4080033A40402010134020001304003A40C400008018003A400000FF071C003A4049
:4027800010003A400200020014003A4000033A4040033A4028023A4038023A4018023A4030003A40FFFFFFDF646301006C63010080003A4080023A40A8250020102700009F
:4027C000FF070000A025002080B500AF0A4B1B68002B0EDBC046094B1B68002BFBDB064B054A1268802109060A431A600A2000F00FFEBD4680BDC04600003A4008023A4044
:4028000080B500AF044B044A1268802149020A431A60BD4680BDC04604003A4080B584B000AF78600023FB607A680323134011D0184B1A6801231340FB60FB68002B03D163
:402840007A6802231340F3D1FB68002B02D0114B01221A607A680C23134015D00D4B1A6810231340FA681343FB60FA681023134003D17A6808231340F0D1FA681023134060
:4028800002D0044B10221A60FB68181CBD4604B080BDC04610023A4080B584B000AF78607B68012B02D9002000F084FD7B68002B08D17B689B00094A9B181B681B041B0C8F
:4028C000FB6004E0064B1B681B041B0CFB60FB689BB21BB2181CBD4604B080BD80013A4090023A4080B500AF044B044A1268802109060A431A60BD4680BDC04680023A40C4
:4029000080B584B000AF78600A1CBB1C1A807B68012B02D9002000F04DFDBB1C1A881E4B79684900CB5A9BB29BB2D31A9AB2BB1C1A80BB1C00215B5E184A5A43BB1C0021AF
:402940005B5E002B08DD164B79688900CB58002B00DA01335B1008E0114B79688900CB58002B00DA01335B105B42D2180C4B79688900CB58101C191C00F0E2FE031C1A1C96
:402980003B1C0E331A803B1C0E331B881BB2181CBD4604B080BDC046A825002010270000A025002080B582B000AF044B1B687B60024B7A681A60BD4602B080BD10023A40BC
:4029C00080B584B000AF021CFB1D1A700E4B1B68DAB23B1C0F3340218A431A70FB1D1B789B01DAB240231340D9B23B1C0F333A1C0F3212780A431A70034B3A1C0F32127832
:402A00001A60BD4604B080BD0002044080B584B000AF021CFB1D1A700E4B1B68DAB23B1C0F3340218A431A70FB1D1B789B01DAB240231340D9B23B1C0F333A1C0F32127883
:402A40000A431A70034B3A1C0F3212781A60BD4604B080BD0003044080B584B000AF021CFB1D1A700D4B1B68D9B23B1C0F337F220A401A70FB1D1B78DB01D9B23B1C0F3364
:402A80003A1C0F3212780A431A70044B3A1C0F3212781A60BD4604B080BDC0460003044080B582B000AF084B1B68D9B2FB1D01220A401A70044BFA1D12781A60FB1D1B7858
:402AC000181CBD4602B080BD1000044080B500AF00F04EF8BD4680BD80B500AF054B054A1268802109060A431A6000F017F8BD4680BDC0460000244080B500AF064B1B781D
:402B0000002B04D1FFF7E2FF034B01221A70FFF7E3FFBD4680BDC0464411002080B500AFBD4680BD80B582B000AF7860C046064B1A681F231340082BF9D0044B7A681A6009
:402B4000BD4602B080BDC046080224404002244080B582B000AF054B1A681F2313407B607B68181CBD4602B080BDC0460802244080B500AF184B194A1A60194B00221A6050
:402B8000184B01221A60184B184A1A60184B07221A60184B00221A60174B01221A60174B124A1A60164B00221A60164B04221A60154B00221A60154B00221A60144B002223
:402BC0001A60144B00221A60134B00221A60134B00221A60BD4680BD000024400F000002400024404800244000032440070000800403244010032440440024400002244089
:402C00000402244050002440880E2440C80E2440480F2440080F2440C80F2440880F244080B500AF00F050F8054B181C00F00EF8032000F017F800F03DF8BD4680BDC046B3
:402C4000452C000080B500AFBD4680BD80B582B000AF7860024B7A681A64BD4602B080BD0000002090B585B000AF021CFB1D1A700623FB603C1C0B3400F09FF8031C2370D5
:402C80000B4B0B4A1268C021101C8843011CFA1D1078FA68041C9440221C0A431A603B1C0B331B78181C00F08CF8BD4605B090BD00E400E080B500AF024B01221A60BD4696
:402CC00080BDC04600E100E080B500AF024B01221A60BD4680BDC04680E100E080B500AF024B01221A60BD4680BDC04680E200E080B582B000AF786000F04AF87B68181CEE
:402D000000F008F8032000F011F800F037F8BD4602B080BD80B582B000AF7860024B7A681A66BD4602B080BD0000002090B585B000AF021CFB1D1A700623FB603C1C0B34C3
:402D400000F03BF8031C23700B4B0B4A1268C021101C8843011CFA1D1078FA68041C9440221C0A431A603B1C0B331B78181C00F028F8BD4605B090BD08E400E080B500AF49
:402D8000024B802252001A60BD4680BD00E100E080B500AF024B802252001A60BD4680BD80E100E0000000000230800803D00138FDD1C046C046C0467047EFF3108072B640
:402DC000704780F31088704780B500AF0B4B0B4A126801218A431A60094B094A126830218A4310210A431A60054B054A126807218A4301210A431A60BD4680BD00F02E401C
:402E000000FF2E4080B500AF0E4B0E4A126802218A431A600C4B0C4A126807218A4302210A431A60084B084A126830218A4320210A431A60034B034A126801210A431A6063
:402E4000BD4680BD00F02E4000FF2E4090B585B000AF78603C1C0F34FFF7AFFF031C2370094B796807220A40D104074A1068074A02400A431A603B1C0F331B78181CFFF75F
:402E8000A0FFBD4605B090BD00010B40FFFFC7FF80B584B000AF78600023FB60154B154A126801210A431A60134B144A1A60144B134A1268802109020A431A607B68002BE1
:402EC00013D01023FB600DE0012000F0A1FA00F019F8031C002B02D00023FB6005E07B68013B7B607B68002BEED1FB68181CBD4604B080BD60F02E4078002E400220000030
:402F000010002E4080B500AF034B1A6801231340181CBD4680BDC0460C002E4080B500AFFFF752FF044B044A1268802109060A431A60BD4680BDC04600F02E4080B584B02E
:402F400000AF78600C4B1A6801231340FB607B68002B02D0012B03D005E0FFF735FF06E0FFF750FF03E0002000F024FAC046FB68181CBD4604B080BD00F02E4090B583B08E
:402F800000AFFC1DFFF719FF031C2370074B074A1268C02109020A431A60FB1D1B78181CFFF70FFFBD4603B090BDC04600010B4080B500AF054B1A68C0231B02134001D0A7
:402FC000012300E00023181CBD4680BD00010B4090B583B000AFFC1DFFF7EFFE031C23700C4B0C4A11680C4A0A408021C9010A431A60084B074A1168074A0A4080210902B9
:403000000A431A60FB1D1B78181CFFF7DAFEBD4603B090BD00010B40FF3FFFFF80B582B000AF78607B68022B02D9002000F0C2F9054B1A687B68DB000133DA400123134098
:40304000181CBD4602B080BD10020B4080B584B000AF786039607B68022B02D9002000F0A9F97B68181CFFF7D9FF031C002B18D10D4B1B687A68D2000321081C9040021CCA
:40308000D2431340FB603A6803231A407B68DB00111C99400B1CFA681343FB60024BFA681A60BD4604B080BD0C020B4080B584B000AF786039607B68002B02D07B68012B3F
:4030C00001D1012300E00023002B02D1002000F071F97B68181CFFF7A1FF031C002B18D10D4B1B687A68D20002320121081C9040021CD2431340FB607B68DB0002333A6830
:40310000111C99400B1CFA681343FB60024BFA681A60BD4604B080BD0C020B4080B582B000AF7860154B154A11687A680A431A607A680123134006D0C0460020FFF76EFF52
:40314000031C002BF9D07A6880235B00134006D0C0460120FFF762FF031C002BF9D07A6880235B02134006D0C0460220FFF756FF031C002BF9D0BD4602B080BD10020B40C2
:4031800080B584B000AF786039607B68002B02D07B68012B01D1012300E00023002B02D1002000F007F9174B1B689B0F9B0701D1C92300E05D23181C00F02AF9124B1B681A
:4031C000FB607B681B01114A111C99400B1CDA43FB681340FB600C4B7A68120139689140FA680A431A60074B1B689B0F9B0701D1432300E01F23181C00F00AF9BD4604B07F
:4032000080BDC0460C020B4008020B40FFFF000080B500AF034B1A68034B1340181CBD4680BDC04610020B400404040090B585B000AF78603C1C0B34FFF7BFFD031C23706B
:40324000FFF7B6FE031C002B04D00123FB60FFF7BFFE01E00023FB607A680C4B13407B600B4B0B4A11680B4A11407A680A431A60FB68012B01D1FFF781FE3B1C0B331B781D
:40328000181CFFF79EFDBD4605B090BD0404040010020B40FBFBFBFF80B582B000AF7860054B054A11687868044A02400A431A60BD4602B080BDC04610020B400808080041
:4032C00080B584B000AF021C3960FB1D1A7080239B05FB60FB1D1B781F2B02D9002000F069F8FB1D1B7810339B00FA68D3181B68BB60FB1D1B7810339B00FA68D3183A6892
:403300001A60BB68181CBD4604B080BD90B587B000AF0A1CFB1D011C1970BB1D1A70BB1D1B78032B02D9002000F044F8FB1D1B781F2B02D9002000F03DF8FB1D1A780323B2
:403340001340DB0006337B613C1C1334FFF735FD031C2370FB1D1B789B08DBB29B0014495B181B68FB607B690322111C99400B1CDA43FB681340FB60BB1D1A787B69111C8E
:4033800099400B1CFA681343FB60FB1D1B789B08DBB29B00064A9B18FA681A603B1C13331B78181CFFF70DFDBD4607B090BDC04600E400E080B582B000AF021CFB1D1A709A
:4033C00001BEBD4602B080BD80B582B000AF786008E00C4B1B68181CFFF7E6FC7B680A4A9B187B607A6880231B029A42F1D8074B1B687A685343181CFFF7D6FCBD4602B056
:4034000080BDC046940100200080FFFF8C01002080B582B000AF021CBB1D1A80BB1D1B88044A12785343181CFFF7BEFCBD4602B080BDC0469001002090B583B000AFFC1D0D
:40344000FFF7BBFC031C2370074B074A126804218A431A6030BFFB1D1B78181CFFF7B1FCBD4603B090BDC04610ED00E090B583B000AFFC1DFFF7A1FC031C2370114B114AD1
:403480001268520052081A600F4B104A128892B21A600F4B0E4A126804210A431A600D4B1B683B600220FFF7D1FC30BF094B3A681A60FB1D1B78181CFFF783FCBD4603B084
:4034C00090BDC04600000B400C000B4052F1FF0F10ED00E000010B4090B583B000AFFC1DFFF76BFC031C2370114B114A1268802109060A431A600F4B0F4A128892B21A605B
:403500000E4B0E4A126804210A431A600C4B0C4A1268FF218A43F1210A431A6030BFFB1D1B78181CFFF74DFCBD4603B090BDC04600000B400C000B4050F1FF0F10ED00E0A3
:403540002C000B4080B582B000AF78600A1CBB1C1A80BB1C1A887B681A60BD4602B080BD80B582B000AF78600A1CBB1C1A80BB1C1A887B681A60BD4602B080BD80B582B0D3
:4035800000AF021CBB1D1A80BB1D1B88181CFFF73FFFBD4602B080BD80B500AF00F068F8BD4680BD80B500AF00F06CF8BD4680BD80B500AF00F066F8044B181C00F024F84A
:4035C000032000F02DF8BD4680BDC0469936000080B500AF024B181C00F004F8BD4680BD9936000080B582B000AF786000F04AF87B68181C00F008F8032000F011F800F0EB
:4036000037F8BD4602B080BD80B582B000AF7860024B7A681A67BD4602B080BD0000002090B585B000AF021CFB1D1A700623FB603C1C0B34FFF7C1FB031C23700B4B0B4AA6
:403640001268C021101C8843011CFA1D1078FA68041C9440221C0A431A603B1C0B331B78181CFFF7AEFBBD4605B090BD0CE400E080B500AF024B802252011A60BD4680BD31
:4036800000E100E080B500AF024B802252011A60BD4680BD80E100E080B500AF12F06CF8BD4680BD002934D00123002210B488422CD301242407A14204D2814202D20901F4
:4036C0001B01F8E7E400A14204D2814202D249005B00F8E7884201D3401A1A434C08A04202D3001B5C0822438C08A04202D3001B9C082243CC08A04202D3001BDC08224376
:40370000002803D01B0901D00909E3E7101C10BC7047002801D00020C04307B4024802A14018029003BDC046D90000000029F0D003B5FFF7B9FF0EBC4243891A1847C0461B
:40374000002941D010B4041C4C40A44601230022002900D54942002800D5404288422CD301242407A14204D2814202D209011B01F8E7E400A14204D2814202D249005B0021
:40378000F8E7884201D3401A1A434C08A04202D3001B5C0822438C08A04202D3001B9C082243CC08A04202D3001BDC082243002803D01B0901D00909E3E7101C6446002CBA
:4037C00000D5404210BC7047002806D003DB0020C043400801E08020000607B4024802A14018029003BDC046190000000029EBD003B5FFF7A7FF0EBC4243891A1847C04621
:403800007047C0460000000038B50E4B0C4A041C0D1C01F0C9FC002804D1201C291C01F01DFC38BD074B064A201C291C01F0E2F801F014FC80231B06C018F2E7C046C04643
:40384000000000000000E041F8B55F46564644464D46F0B40C034D00CE0F610A440F2143C400180380465800400D8246D80F84464046400A530F0343D0006D0D371C83467C
:403880005246664500D1A4E0AF1A002F00DC09E1002A3BD1184300D0EAE0630700D187E00F232340042B00D182E0221DA242A4416442802309191B040B40371C141C002B63
:4038C00000D17CE0CE4B01359D4200D105E1CD4BE40819404807490204430B0B002000211B031A0B0B0D6D051B0513436A08C64DFF071D4015436D006D08291C3943201CBF
:403900003CBC90469946A246AB46F8BDBC488542C3D0802000040343382F00DDF0E01F2F00DD24E12020C01B1A1C814682405846F8400243944658464A469040421E9041C2
:40394000FB40624602431F1CA21A9442A4416442C91B091B141C0B029FD549024F0A002F00D1C8E0381C01F029FC021C083A1F2A00DDB5E02821091A201C9740C84007436C
:403980009440954200DDB2E0551B691C1F2900DDDCE01F22551B3B1C221CAB40CA40AC40651EAC411343CF401C43391C002574E780231B040B40371C002B00D082E7904B48
:4039C0004807E4080443C9089D4248D009030B0B84E7AA1A9446002A00DC98E05046002852D08748854200D157E78020000403436246382A00DDFCE01F2A00DD4AE120220F
:403A00006046101A1A1C82408246914658466246D0404A4602439046584652469040421E9041424602436046C3401219A242A441644259180919141C080200D42DE7704B67
:403A400001359D4200D122E16E4B60081940012323401C1C0443CB071C4349081DE7231C0B433AD080231B030B431B031B0B35E7013F002F65D15846221A9442A441644271
:403A8000C91A091B141C66E75846184300D104E70122524294446046002800D0C5E058460219C3E7002F73D1681C4005400D012800DCDEE05A46A21A9442BF41C81A7F4277
:403AC000C71B380200D489E05A46141BA3459241591A52428F1A664641E700230024FDE6271C283887400024954200DC4CE74549AD1A3940D1E6201C01F060FB203034E749
:403B00005A461A43531E9A41D2B200271CE7002A00D0DCE0681C4205520D012A00DC8DE0374DA84200D1F3E05D462A19A242A441644259180919CC07520814434908051C4A
:403B4000ABE62F48854200D0E6E6A6E62B1C1F3B3A1CDA40131C20296CD03F22551BAF403C43601E84411C430021002595E6381C20381A1CC240101C202F5DD04022D71B07
:403B8000BB405A461A43531E9A4102430027DBE6002D3BD01A4DAA4500D193E080252D047F422943382F00DDACE01F2F00DD29E12025ED1B081C261CA840FE40AC400643AC
:403BC000651EAC413443F9405D462C1BA34592415B1A5242991A55466646BCE6131C3B43141C002B00D0BAE60027002100250024E5E65A461A43531E9A41D2B2002314E79C
:403C0000FF070000FFFF7FFFFFFF0F800D1C254358D0FF43002F51D1041BA3459241591A5242891A5546664695E69648854200D0DEE632E6002793E70023A2E7081C2043BE
:403C4000002D00D0C4E0002800D1F7E05846184300D122E658460219A242A441644259180919141C0A0200D417E6874B0125194013E6081C2043002D39D1002871D1594628
:403C8000194303D0191C5C46664606E600270021002494E6604620381A1CC24060469146202800D1ACE04022121A93405A461A43531E9A414B461A430023B6E6714DAA4524
:403CC00000D06FE7191C5C4655466646E5E5002D22D10D1C254377D0D543002D71D15C445C4592415918524289185546A4E600284DD15946194300D194E0191C5C4666464F
:403D0000604DCAE50C43611E8C41E4B200215BE7051C0021002452E65A4DAA4554D05542802210040143382D00DD81E01F2D00DD92E02022501B0A1C84468240201CE840A9
:403D40000243904662469440601E844142461443E9405C445C459241CB185242991855466AE65846184300D197E55846271ABC429241C81A5242801A020266D55846041B38
:403D8000A3459241591A5242891A664685E55846184333D04807E40804438020C9080003014208D0DD08054205D15946CA085C071443291C6646630FC9001943E400314D64
:403DC0006BE5304A9245AED1191C5C46554664E5002836D05846184310D080254807E408C9082D0304432942E5D0D8082842E2D15D46EA085C071443011CDCE7214D4CE5CE
:403E0000002353E73D1C203D0A1CEA40151C202F34D04026F71BB9400C43611E8C412C430021D1E680210027C903164D0024C6E50C43611E8C41E4B200218AE7191C5C46E8
:403E40002BE5191C5C460F4D27E5031C3B4300D11CE7011C3C1C20E52020404240190A1CC2409046202D0BD04020451BA9400C43611E8C4145462C4300216AE70021CBE744
:403E80000021F4E7FF070000FFFF7FFFF0B5564644465F464D46F0B41F1C0B031B0B98464B0087B0041C81465B0DC80F161C9A460090002B51D06A4B9A4531D0802241463C
:403EC00052030A43630FD2001A43664B90460025E20091469A44002402953B031B0B9B46FD0F7B00311C5B0D019560D05C4A934254D08021584649030143720FC90011432E
:403F0000584A8B469B18F1000020009A04436A4003920F2C00D9ADE0534EA4003459A746404604436ED1002102250824884689460295D2E7009C0298C346494601940228D0
:403F400064D0032800D1ABE2012800D038E2019A002402400025A14660E0434623434AD04046002800D1C0E101F028F9031E272B00DDB3E128210D1A211C083B4246E94064
:403F80009A400D1C1543221C9A40A8469146374B00251B1A9A46002402959EE75A4616430320002EB1D1B34600210220ADE75A4632431BD05B46002B00D18AE1584601F09A
:403FC000FDF8272800DD7DE12822171A011C321C08395B46FA408B40171C1F43331C8B40BB46191C214B1B1A00208EE70027BB460021012089E70020012504248046814685
:4040000002956AE703250C24029566E7019C0394039D01222A400024114DA146002000212403260B0C0D2405114B34432D0523402B435B005B08D207191C4846114307B07C
:404040003CBC90469946A246AB46F0BD0022802424039146024DE1E700240025A146DDE7FF07000001FCFFFF706301000DFCFFFFFFFF0F805546ED1A0495D84500D953E170
:4040800000D14EE1049C0025013C4E4604944746A946584603020C0E1C430902250C23041B0C0091381C291C0193FFF7FBFA019983464143381C8A46291CFFF737FB330C50
:4040C000090419438A450CD95B460919013B8C4200D947E18A4500D844E102225242934409195346CB1A181C291C9846FFF7DAFA071C0198291C784382464046FFF716FBA8
:4041000036040B04360C33439A4509D91B197A1E9C4200D924E19A4500D821E1023F1B195E4632041743380CBB46009E009F51463F0C32045B1A5946BA46120C0F043F0CA9
:40414000904651467A434F434146414356467043CF19160CBE19B14202D980277F02C019310C12043604120C4018B618834200D2C4E000D1BEE0191A4846861BB145BF41A6
:404180007F42CF1BA74200D113E1291C381CFFF789FA019902904143381C8946291CFFF7C5FA330C0904194389450CD9029B0919013B8C4200D9FFE0894500D8FCE0029FC8
:4041C0000919023F02974F46CF1B381C291C0597FFF768FA071C0198291C784381460598FFF7A4FA36040904360C0E43B14509D936197B1EB44200D9E0E0B14500D8DDE04F
:40420000023F3619029D4946761A290439430B0457460A0C1B0C40464546584355437B437A43EB18070CDB199D4202D980256D0252191D0C00041B04000C52191B189642CE
:4042400035D300D1FCE001231943049E994FF519002D00DCA1E0480709D00F230B40042B05D00B1D8B42894149428B44191C5A46D20107D5904B5C46049E80271C40FF0080
:40428000A346F5198D4B9D427ADD039C0122224000248B4DA146C1E680242403474627424CD13C432403240B009A854DB6E63619481EB4425ED9011C9642C4D1009E9E42A6
:4042C000C1D1C2E7031C283B311C99408B46002188E6301C00F072FF203072E6283B211C994000228846914651E6201C00F066FF20303BE60021B14500D33DE7009F5A4660
:40430000B944B945BF417F423F19FB18013A9C421ED2984200D97EE000D1B5E0191A93462AE7894500D8ADE64846464642467708D3074608C0071E438146AAE658462042B8
:4043400012D1044324032A1C240B89465C4D65E6A342E3D1009F4F45DBD9211A93460BE7171CDDE69B46BCE63C432403240B009A534D53E6B24259D800D18AE0011C62E7A7
:404380005F46C9087B07039E0B437C026D0501229946240B6D0D324040E64A4B049FDB1B382B10DD039C0122224000240025A14634E60121494248E7029304E71F1C21E758
:4043C000019C039441E71F2B40DC3F48049F0C1C3A1858469140DC40904020430A1C511E8A41011C11435A46DA40131C480709D00F220A40042A05D00A1D8A4289414942F1
:404400005B18111C1A0234D5039C0122224000240125A14602E6009F02214942B9448B44B945894149420919CB18A4E6009D881E6900A942AD416D422C19361900913AE705
:40444000002B00D033E70024009437E71F4A049C5D46121BD5402A1C202B1FD01C4E5F46A3199F403B1C19434B1E994111430023BCE75A07C9080A43039F91465B020122B1
:404480001C0B3A400025C9E54E45C4D89346002172E6009F9F42C9D3011C0FE70023E2E7802424035F463C432403240B019A8946034DB3E5FF030000FFFFFFFEFE07000053
:4044C000FF07000002FCFFFF1E040000E2FBFFFF3E040000F0B5564644465F464D46F0B41F1C0B031B0B9A464B0087B0041C80465B0DC80F161C02938146002B68D0694B39
:404500000299994232D08022534652031A43D200630F1A439246644AE000891880460291002400253B031B0B9B467800FB0F321C400D039300D175E05A4B984269D0802254
:40454000594652030A43730FD2001A43564B9346C018F200002303994E4671401C430F2C00D9A9E0514EA4003459A74653461C4300D087E00025AA46A84608240225D1E70B
:404580004946022D6CD0032D00D117E2012D00D058E10D40EDB20024A9460023A0460020002125030A0D1C052D0B1205404B2A43134023435B004C465B08E207191C404633
:4045C000114307B03CBC90469946A246AB46F0BD5346234350D05346002B00D184E1504600F0ECFD031E272B00DD76E128210D1A211C083B5246E9409A400D1C1543221C04
:404600009A40AA4690462B4B00241B1A0293002588E75B461E430323002E9CD1B3460022022398E75B46334321D05846002800D14EE100F0C3FD272800DD42E128210F1A21
:40464000021C311C083A5B46F94093400F1C1F43331C9340BB461A1C164B181A00237AE701230B4000249946A0460E4B97E70027BB46002201236EE7002104248A4688460A
:4046800001254FE70C2403254CE700258024A9462403A846034B82E7DA46904603991D1C6FE7C046FF07000001FCFFFFB0630100FFFF0F800DFCFFFF029F160C3818049018
:4046C0004046070C0004000C1204120C031C5343041C3D1C7443554398463B1C73436419A44644460293230C63449D4204D9029D802464022D1902951D0C039545462C045B
:404700001B04240C1C1905945C46230C051C58432404240C8446381C604365435F438146CC44280C6044BB46814502D980277F02BB442D04070C2D0C000440195546BC467D
:404740002F04E3448446280C3D0C2F1C5743B8462F1C77434243B94647463F0C9144BA46D14446434A4502D980225202B6184F463A0CB6183A0447463F043F0CB8462F1C68
:4047800067435D434443584365190190380C2D184244B846AC4204D9019880235B02C0180190039C029F201C6044C0196045A44147466442A4462B043C049946240C4C44F6
:4047C000A046D8448018C246E24490429241574652429146F219E245BF417F424B46BC46D845BF41D4187F4263461F432D0C7F19B24292414C45AD4152426D421543019E98
:404800007D19AB19E20D5B02059F134342023A439A46531E9A41C30D101C18436402204380465046C0010DD5454601225646049C6B082A401A43F30701341A437608049406
:404840009046B246049E634FF319002B61DD404640070BD00F2244462240042A06D042460432424580414042824490465546ED0107D5594B5646049F80201E40C000B246B6
:404880003B18564A934200DDEAE644465546E2086807104301226C025B050A408046240B5B0D91467BE6DA4690461D1C69E680242403574627421CD13C432403240B484B3E
:4048C0006DE6031C283B311C99408B460022C3E6301C00F073FC2030ADE6283B211C994000228A4690468EE6201C00F067FC203078E65846204207D1044303992403240B90
:4049000089469046364B4AE63C432403240B344B45E6344B049E9B1B382B06DD01230B4000249946A046002339E61F2B25DC049C2D4D46466019524644468640DC408240BB
:404940005746301C2243DF40441EA04102433B1C540709D00F201040042805D0101D9042924152429B18021C1D021AD501230B4000249946A046012311E61C48049C5546E0
:40498000001BC540281C202B16D0194E5746A21997403A1C43461A43531E9A4102430023D6E758075B02D2081C0B01230B401043994680460023F2E50022EBE78024240342
:4049C00050460123044319402403240B8946044BE5E5C046FF030000FFFFFFFEFE070000FF07000002FCFFFF1E040000E2FBFFFF3E040000F8B55F46564644464D46F0B427
:404A00000C034D00CF0F610A440F2143C4001803DE0F8046B44646465800760A530F3343D600D14A6D0DBA46400DB346904200D1F5E06246012672409446674500D1ABE0C6
:404A40002F1A002F00DC11E100283ED15846184300D0F1E0600700D197E00F232340042B00D122E1221DA242A4416442802309191B04012750460B400740141C002B00D1CA
:404A800079E0B94B01359D4200D10BE1B74BE40819404807490204430B0B002000211B031A0B0B0D6D051B0513436A08B04DFF071D4015436D006D08291C3943201C3CBC04
:404AC00090469946A246AB46F8BDA7488542C1D0802000040343382F00DDFDE01F2F00DD31E12020C01B1A1C5E468240FE40324394465A468240101C421E9041FB406246FE
:404B000002431F1CA21A9442A4416442C91B091B141C0A029ED549024F0A002F00D1D6E0381C00F04BFB021C083A1F2A00DDC3E02821231C091A9740CB401F43944095427A
:404B400000DDC0E0551B691C1F2900DDEAE01F22551B3B1C221CAB40CA40AC40651EAC411343CF401C43391C002573E780217E4D0027C90300247C4B4807E4080443C90808
:404B80009D4250D009030B0B87E780231B04012752460B40174071E72A1A9446002A00DCA1E0002854D07048854200D152E78020000403436046382800DD0EE11F2800DD90
:404BC00057E162462020801A1E1C8640B1465E46D6404A4632435E4686409046301C421E9041424602436046C3401219A242A441644259180919141C080200D42AE75A4B21
:404C000001359D4200D131E1584B60081940012323401C1C0443CB071C4349081AE71E4300D00AE705E7231C0B433BD080231B030B431B031B0B30E7013F002F6DD15E462E
:404C4000A21B9442A4416442C91A091B141C60E75846184300D1FDE601267642B4446046002800D0D0E05E463219BFE7002F00D080E0681C4005400D012800DCE8E05A464F
:404C8000A21A9442BF41C81A7F42C71B3E0200D498E05846041BA3459241591A52428F1AE2463AE700230024F7E680231B04012756460B403740E1E6271C2838874000241F
:404CC000954200DC3EE72949AD1A3940C2E6201C00F074FA203026E75A461A43531E9A41D2B200270EE7002A00D0DEE0681C4605760D012E00DC90E01B4DA84200D1F5E025
:404D00005E463219A242A441644259180919CC07520814434908051C9CE61348854200D0D9E697E62B1C1F3B3E1CDE40331C20296FD03F22551BAF403C43601E84411C430B
:404D40000021002586E6381C20381E1CC640301C202F60D04022D71BBB405A461A43531E9A4102430027CDE6FF070000FFFF7FFFFFFF0F80002D37D0B64DA84200D18FE0A3
:404D800080252D047F422943382F00DDA8E01F2F00DD24E12025ED1B0E1CAE40B046261CFE404246AC401643651EAC413443F9405A46141BA34592415B1A5242991A051CC5
:404DC000E246A6E6131C3B43141C002B00D0A4E60027002100250024CDE65A461A43531E9A41D2B2002300E70D1C254358D0FF43002F51D15A46141BA3459241591A5242A5
:404E0000891A051CE24684E69248854200D0D1E620E6002790E700239FE7081C2043002D00D0C2E0002800D1EFE05846184300D110E658460219A242A4416442591809193E
:404E4000141C0A0200D405E6834B0125194001E6081C2043002D38D100286FD15946194303D0191C5C46E246F4E500270021002481E6604620381A1CC2406646101C202E09
:404E800000D1AAE04022921B93405A461A43531E9A4102430023A8E66E4DA84200D073E7191C5C46051CE246D4E5002D22D10D1C254376D0D543002D70D15C445C4592413D
:404EC000591852428918051C96E600284CD15946194300D14AE6191C5C46E2465D4DB9E50C43611E8C41E4B2002161E7051C0021002440E6574DA84253D0554280221604BD
:404F00003143382D7BDC1F2D00DD8CE02022561B0A1CB446B240261CEE403243904662469440661EB44142461443E9405C445C459241CB1852429918051C5DE65846184396
:404F400000D187E55E46A71BBC429241C81A5242801A060260D55846041BA3459241591A5242891AE24675E55846184333D04807E40804438020C9080003014208D0DD08DA
:404F8000054205D15946CA085C071443291CE246630FC9001943E4002E4D5BE52D4A9042AFD1191C5C46051C54E5002830D05846184310D080254807E408C9082D030443E3
:404FC0002942E5D0D8082842E2D15D46EA085C071443011CDCE71F4D3CE5002355E73D1C203D0E1CEE40351C202F2ED04026F71BB9400C43611E8C412C430021D8E60C4324
:40500000611E8C41E4B2002190E7191C5C4621E5191C5C460F4D1DE5031C3B4300D124E7011C3C1C16E52026764276190A1CF2409046202D0BD04026751BA9400C43611E6B
:405040008C4145462C43002170E70021D1E70021F4E7C046FF070000FFFF7FFF70B50B1C124C09030E0B5900021C490DDD0F0020A14211DD0E4881420FDC802040030643EB
:405080000C48401A1F280BDD0B4A521AD640321C5042002D00D1101C70BD084BE818FBE7074BC240C9188E403243F1E7FE0300001D0400003304000013040000FFFFFF7F94
:4050C000EDFBFFFFF8B5041E31D0C70F00D04442201C00F073F8184D2D1A0A2819DD0B38844024036D05240B6D0D3A1C0026002000210B0D2403240B1B0523430F4C2D05DC
:405100001C402C4364006408D307211C301C1943F8BD061C1536231CB3401E1C0B23181AC44024036D05240B6D0D3A1CDFE70022002500240026DAE71E040000FFFF0F80C4
:405140008446101C62468C46191C634600E0C0461FB500F019F9002801D40021C8421FBD10B500F049F84042013010BD10B500F00BF9002801DB002010BD012010BDC0460D
:4051800010B500F001F9002801DD002010BD012010BDC04610B500F079F8002801DC002010BD012010BDC04610B500F06FF8002801DA002010BD012010BDC0461C210123EC
:4051C0001B04984201D3000C10391B0A984201D3000A08391B09984201D30009043902A2105C40187047C04604030202010101010000000000000000F0B55F4656464D46AA
:405200004446F0B40D1C041C8046E80F814618030F03000B3F0B83B084461B48009749005E00DF0F490D9246760DBB4681420CD01548864210D00120B14215D003B03CBC6B
:4052400090469946A246AB46F0BD009F01202743F4D10D488642EED1604602430120002AECD10120B142E9D1009B6345E6D1D045E4D1D94506D00029E0D11C43201C441ED8
:40528000A041DBE70020D9E7FF070000F0B55F4656464D464446F0B4CD0FDE0FAC461D032D0BB146374E0F034C00AB465D0080463F0B640D92466D0DB44232D0314EB54242
:4052C00035D0002C0ED1384341424141081C002D0BD0002919D1CC452DD0654668420123184318E0002DF6D1281C59460A4353425341002806D1002BEDD06346584201236A
:40530000184308E00020002B05D14A46504250414042012318433CBC90469946A246AB46F0BD3E1C0643C9D002204042F3E75E461643C6D0F8E7AC4207DC0BDA614648420F
:405340004841404201231843E5E76646704201231843E0E75F450AD80ED000205F45DAD2654668426841404201231843D3E76246504201231843CEE7D045F8D80020D0451E
:40538000EED3C8E7FF070000F0B556464D4644465F46F0B40D1C83B0041C0190E80F814618030F03000B3F0B84463548009749005E00DF0F490D9246760DB846814234D09A
:4053C0002F48864236D0002918D0002E1FD1341C67463A4353425341002C1FD00020002B05D142465042504140420123184303B03CBC90469946A246AB46F0BD00980443E9
:4054000060426041041C002EE2D00028E9D1C14515D04F46784201231843E8E7002BF6D04B46584201231843E1E7009F02202743DDD1C5E7674602201743D8D1C3E7B14268
:4054400004DD4A46504201231843D0E7B14207DB00986045E4D80AD0009F00206745C6D24F4678427841404201231843BFE7019A5245D5D8019A00205245F1D3B7E7C04600
:40548000FF070000014B18687047C0462404002070B50E4B0E4D0024ED1AAD101E1CAC4204D0A300F35898470134F8E710F0EEFF084B094D0024ED1AAD101E1CAC4204D0FD
:4054C000A300F35898470134F8E770BD986401009864010098640100A064010030B50023934208D0C55C0133CC18013C2478A542F6D0281B00E0002030BD10B50023934241
:4055000003D0CC5CC4540133F9E710BD031C8218934202D019700133FAE770470FB40B4B13B51C68002C05D0A369002B02D1201C00F008FD05ABA168201C049A019300F00A
:405540009BF816BC08BC04B01847C0462404002070B5051C0E1C002804D08269002A01D100F0F0FCAC68A3891A0702D52369002B19D1281C211C00F069FB002813D0012098
:40558000404245E03178002B1BDAA269934211DA281C221C00F002FB013043425841C0B20028ECD10136A3683278013BA360002AE8D10CE023681970236819780A2903D16A
:4055C000E6E722681170236801332360EAE7002B17DAA269934208DB22680A231370236819780A2911D1281C01E0281C0A21221C00F0D4FA013043425841C0B2002806D027
:40560000BDE722680A2313702368013323600A2070BD000008B5034B011C1868FFF798FF08BDC04624040020936810B5013B9360002B05DA9469A34208DBCBB20A2B05D066
:405640001368581C10601970C8B201E000F0A6FA10BDF8B5061C0F1C141CD518AC4208D02178301C3A1CFFF7DFFF0134431CF5D100E00020F8BD0000F0B59FB0061C0F1C4E
:4056800003920593002804D08169002901D100F059FC754B9F4201D1776808E0734B9F4201D1B76803E0724B9F4200D1F768BB891A070AD53B69002B07D006AD00236B6190
:4056C00020236B763023AB763BE0301C391C00F0BDFA0028F1D001204042C2E0059A111D12680591002A76DB0992013423782E2B00D181E021785F48032200F0E3FC0028D7
:4057000007D05C492A68431A402098401043286001342178631C584806220393297600F0D1FC002800D18AE0544B002B7ED1059B072207339343083305936A6904995318E1
:405740006B61039C2378002B04D10399611A029110D003E0252BF8D00134F3E7301C391C039A029BFFF775FF013075D06A69029953186B612378002B6ED0012252426A60AA
:405780006A4600235B3201342B60EB60AB601370AB6521783A48052200F094FC002808D0374A0134831A012098402B6818432860EFE72B68D90603D56A4620215B3211703D
:4057C0001A0703D56A462B215B32117022782A2A84D0099B05E05242EA60022213432B6083E72278303A092A04D80A214B4301349B18F6E7099379E763782A2B09D1059B57
:4058000002341A1D1B680592002B0DDA01235B420AE0013400232278303A092A04D80A214B4301349B18F6E7079363E705AB0093301C291C3A1C134B00E000BF07E005AB99
:405840000093301C291C3A1C0E4B00F091F804900499013100D070E7BB895A0600D53AE70B981FB0F0BDC0462C6401004C6401006C640100FE6301000264010000000000B7
:40588000F863010053560000F7B5151C01930A698B68061C0C1C934200DA131C221C2B6043321278002A01D001332B602068800602D52B6802332B60216806270F401FD036
:4058C000231C43331B785A1E9341226892061FD5E11840313020C870211C5A1C45310978A21840320233D17012E0221C301C019919320123089FB847013011D0009F0137AC
:405900000097E0682968009F431A9F42EDDBD7E7221C301C01994332089FB847013002D10120404223E0206806212B68E26801400025042903D1D51AEB43DB171D40A26842
:4059400023699A4201DDD31AED1800270097009FAF420BDA221C301C01991A320123089FB8470130DCD0009F0137EFE70020FEBDF0B50D1C8BB0433506920590079304953C
:405980000B7E0C1C109A6E2B00D1A7E011D8632B22D009D8002B00D1B0E0582B00D0C0E045310B707B4D4EE0642B1CD0692B1AD0B7E0732B00D1A5E009D86F2B29D0702B58
:4059C00000D0AEE00E68202333430B6036E0752B1FD0782B32D0A4E013680D1C191D423511601B689FE0216813680E0603D5191D11601E6805E04806F9D5191D1160002137
:405A00005E5E644B002E3BDA049D2D2276422A7036E0216813680E0603D5191D11601E6804E04806F9D5191D1E881160594B227E039308276F2A1ED00A271CE0231C782161
:405A40004533554D197011682368081D039510601E0601D50E6802E05806FBD50E88D90702D52022134323601027002E03D1226820239A432260231C002243331A7001E0C3
:405A800003930A276368A360002B03DB2568042295432560002E02D1049D002B0ED0049D301C391CFDF742FE0398013D435C301C2B70391CFDF7F6FD061EF1D1082F09D185
:405AC0002168C90706D5626823699A4202DC013D30232B70049E731B23612AE0086813684969050604D5181D10601B68196005E04606F8D5181D10601B68198000232361F0
:405B0000049D16E01368191D11601D68281C00F0DFFB63682061984200D923612069606004E0251C42352B7001232361049E00233370079E05980096211C09AA069BFFF7A7
:405B4000A3FE013002D10120404221E02A1C059806992369079DA8470130F4D02668B60705D4099BE068984212DA181C10E00025E0680999431A9D42F3DA221C05980699BA
:405B800019320123079EB0470130DCD00135EFE70BB0F0BD096401001A64010070B5051C0E1C141C002804D08269002A01D100F0C9F9234B9C4201D16C6808E0214B9C4243
:405BC00001D1AC6803E0204B9C4200D1EC68A369A360A3891A070AD52369002B07D022682369F6B2D01A626990420FDB08E0281C211C00F02BF80028F1D0012040421DE071
:405C0000281C211C00F01EF90028F6D1A3680130013BA36023685A1C22601E706369984205D0A389301CDA0708D50A2E06D1281C211C00F007F90028DFD1301C70BDC046D9
:405C40002C6401004C6401006C640100344B70B51D68061C0C1C002D05D0A969002902D1281C00F06FF92F4B9C4201D16C6808E02D4B9C4201D1AC6803E02C4B9C4200D1C7
:405C8000EC68A28993B2190721D4D90605D40923336040231A43A2813FE05A0713D5616B002908D0231C4433994202D0301C00F015FA00236363A38924229343A381002356
:405CC000636023692360A38908221343A381216900290BD1A389A02292001A4080239B009A4203D0301C211C00F09CF9A38901221A4005D061690022A2604A42A26103E0C0
:405D0000990700D46269A26022690020824206D1190604D540221343A3810120404270BD240400202C6401004C6401006C640100F7B58B89051C0C1C19075ED46268002A8E
:405D400002DC276C002F1ADDE76A002F17D000222E682A60802252011A4001D0626D15E0281C216A0123B847021C411C0ED12B68002B0BD01D2B01D0162B02D12E6000203F
:405D80005EE0A38940210B43A38159E0A3895F0706D56168636B521A002B01D0276CD21B281C216A0023E76AB847A289411C06D12B68002B03D01D2B01D0162B19D10023E8
:405DC000636023692360D70405D5411C02D12A68002A00D16065616B2E600029CFD0231C4433994202D0281C00F078F90020606326E040231A43A28122E02669002EBED057
:405E000027680022BF1B01972660990700D16269A260019F002FB2DD281C216A321C019BA76AB847002806DCA389402213430120A381404204E0019F36183F1A0197E8E70D
:405E4000FEBD00000A6938B5051C0C1C002A01D100201CE0002804D08369002B01D100F071F80B4B9C4201D16C6808E0094B9C4201D1AC6803E0084B9C4200D1EC680C2227
:405E8000A35E002BE4D0281C211CFFF751FF38BD2C6401004C6401006C640100F8B5041C071C4834002C12D0A5686668013E0CD4AB89012B07D90E22AB5E013303D0381CEB
:405EC000291CFFF7BFFF6835F0E72468EAE7F8BD002310B5041C03604360836081814366C281036143618361191C08225C30FFF70DFB054B24626362044BA362044BE362EC
:405F0000044B236310BDC046396200006162000099620000C562000070B54B1E68255D430E1C291C743100F021F9041E08D00021016046602A1C0C30A0606832FFF7E6FA4C
:405F4000201C70BD836913B5041C002B27D18364C3640365124B134A1B688262984201D101238361201C00F01FF86060201C00F01BF8A060201C00F017F80421E060002272
:405F80006068FFF7A5FFA06809210122FFF7A0FFE06812210222FFF79BFF0123A36113BDF46301009D5E0000F8B51D4B071C1E68B269002A02D1301CFFF7C4FF4836B468A6
:405FC0007368013B05D40C22A55E002D10D06834F7E73368002B06D1381C0421FFF79CFF3060002801D03668E9E70C233B6016E001235B42E381201C0123A38165662560A2
:40600000A560656025616561A5615C30291C0822FFF77CFA6563A563A564E564201CF8BDF4630100F0B58B8991B0051C0C1C9A0725D40E23C95E002906DAA78980231F4002
:406040000FD0002740260EE001AA00F06FF90028F3DB029BF0273F02184A1F40BF187B425F418026F600281C311C00F07FF800280CD1A3899A051FD402221343A381231CAF
:406080004733236023610123636115E00C4B8022AB62A38920601343A38120616661002F0AD00E23E15E281C00F052F9002803D0A38901221343A38111B0F0BD00E0FFFF06
:4060C0009D5E0000C9B28218904204D003788B4202D00130F8E700207047000030B5002940D004390B68002B00DAC9181E4A1368141C002B02D14B60116033E099420FD239
:4061000008680A189A4205D113685268C01808604A6000E04B60216024E08A4203D8131C5A68002AF9D11D685C198C420BD10968691858181960904214D1146852680919D2
:4061400019605A600EE08C4202D90C23036009E008680C18944203D114685268001908604A60596030BDC0468825002070B50323CD1C9D430835061C0C2D01D20C2501E031
:40618000002D3FDB8D423DD3204B1C681A1C211C002913D00868431B0DD40B2B02D90B60CC181EE08C4202D1636813601AE0486860600C1C16E00C1C4968E9E7144C206846
:4061C000002803D1301C00F025F82060301C291C00F020F8431C15D0C41C03239C4384420AD12560201C0B300722231D9043C31A0BD05A42E25008E0211A301C00F00AF848
:406200000130EED10C233360002070BD882500208425002038B5074C0023051C081C2360FBF796F8431C03D12368002B00D02B6038BDC046AC25002038B50C1C0E25495FFE
:4062400000F0ACF8002803DB626D1318636503E0A289024B1340A38138BDC046FFEFFFFFF8B51E1C8B89051C0C1C171CDA0505D50E23C95E0022022300F07CF8A289054B5B
:40628000281C1340A3810E22A15E331C3A1C00F027F8F8BDFFEFFFFF38B50C1C0E25495F00F068F8A389421C03D1054A1340A38104E0802252011343A381606538BDC04628
:4062C000FFEFFFFF08B50E23C95E00F01DF808BD0023C25C0133002AFBD1581E7047000038B5084C051C00202060081C111C1A1CFAF786FC431C03D12368002B00D02B60FB
:4063000038BDC046AC25002038B5074C0023051C081C236000F056F8431C03D12368002B00D02B6038BDC046AC25002038B5074C0023051C081C111C236000F04BF8431CEE
:4063400003D12368002B00D02B6038BDAC25002038B5074C0023051C081C236000F042F8431C03D12368002B00D02B6038BDC046AC25002038B5084C051C00202060081CA7
:40638000111C1A1C00F036F8431C03D12368002B00D02B6038BDC046AC25002038B5084C051C00202060081C111C1A1C00F02AF8431C03D12368002B00D02B6038BDC04652
:4063C000AC250020024B5822012040421A607047AC250020024B5822012040421A607047AC250020024B582200201A607047C046AC250020024B5822012040421A607047EA
:40640000AC250020024B5822012040421A607047AC25002010B501F06BFA10BD10B501F07DFA10BD10B501F081FA10BD10B500F0DBF810BD10B5074904460978022000297F
:4064400007D1204601F0A2FA002802D1204608F0C7FF10BDAA020020F7B51F4E0024307815460F46002804D00824B76075802046FEBD002F00D1012401F050FA009800288F
:4064800005D0172D03D301204002854201D90124EBE7002CE9D12946384600F023F80400E3D1706800F01CF80400DED1706800F015F80400D9D101F04BFA0400D5D10098D2
:4064C00006F04AFB0400D0D106F05CFB0400CCD101203070C9E70000980100200020704700207047F8B50D4607460026FDF770F8FDF758F800F02EFA040065D100F0B8FBEE
:40650000040061D13449084600F0D4FD0404240C5AD1A80705D0A807800F0421081A401985B2172D02D968002E3886B22B48301881B2384601F0C0F8040045D1284F034689
:406540000246002825D127495E008E5B294610318E4207D99000C01941800221521C4170D2B215E08E420BD10020787690001D49C0194680891FC95C891C4170012012E034
:40658000052A06D1164806461436418302207071012014495E008E5B9100C9194E80114EB61FF65C4E705B1C521CDBB2D2B2062BC7D30B4800F06CF8002C05D100F084F8FA
:4065C00007490120891E087000F0D6F9002C01D0FF20F8BD0020F8BDFD650000940C0000A60100200665010010B503480078012801D100F0F1FE10BDA401002070470000C6
:4066000010B5011F0878034A8000105800F0F4FF10BD00004C11002010B5044604498000085800F057FF002801D00470001D10BD4C11002038B5044692B2C9B2684600F0A9
:406640006FFF024AA1000098505038BD4C11002070B50B49064600204C6805466178002908D06188B14202D32078FFF7D5FF002804D1241D6D1CEDB2082DEFD370BD0000BA
:40668000C801002010B5002801D0FFF7B9FF10BD70B50B4E0446002570606178002905D062882078121D0023FFF7C4FF6D1C241DEDB2082DF1D3024800F0F0FFB06070BDCF
:4066C000C8010020002070471CB5002469460C70142001902346054A05480CF039FC04480068401C00D1FF2420461CBD45670000D40100203EB5124A0146FF2000230124DE
:40670000126800290DD0012914D0042908D104206946009308814B8110460CF014FC80B23EBD6846009304814381694610460CF005FCF4E768460093048143816946EBE709
:40674000D401002070B54589046841680089030000F026F806240408081D2124002005F0D1F91BE0022908D0C8B22A4621460AF0DBFE2046FFF786FF10E002202A46214617
:406780000AF0D2FE2946204600F018F806E000200CF0D2F802E020460CF060FC002070BD30B47446641E2578641CAB4200D21D46635D5B00E31830BC18470000014B002253
:4067C000DB681847D801002070B5448905680089022803D0032809D0FF2070BD2246094C0023A46829460120A04708E0FFF716FE241DA2B200232946022006F090F800208D
:4068000070BD0000D801002070470000024800214160018041807047D801002070B50C46002186B016460391012802D0022859D116E003A9012006F0CAF801281BD1039D40
:40684000324621462846FEF758FE0095287801900220694608814E816846FFF7B5FF41E0214D002B686809D0049004A9022006F0AEF801281DD0022006B070BD002812D0B2
:40688000298840182146FEF738FE28880024801980B228806988091D884206D12C801348FFF792FF03E00320E6E788421AD96C6018E004986860E278A378110219430B4ABF
:4068C000698000231060E3565360032313815181A1788170E178C1706178417021780170042028800020C7E7D80100206C1100203EB515460C46022803D004280CD0002087
:406900003EBD0091019002206946088107484A8100680CF018FB07E00AF006FE044B0022DB6829462046984701203EBDD4010020D8010020014AD16090607047D8010020DC
:40694000034801688068081A0A214843000970477811002010B5FCF72BFE542204490548FEF7CBFD03490120C870002010BD000016650100C813002010B5FCF70DFE10BDF3
:4069800070B5134C2368002B08D0207B1149C20705D04008400020738868A08070BD88680B4AA18880B29268814203D90A4D691A091802E0814202D2411A5118A160A08048
:4069C000A0689842EAD300F015F80CF0D9FA70BD78110020C0102E40FFFF000010B508461946FFF7A7FF10BD704710B5FFF780FF10BD000003480021016041608160C16011
:406A0000704700007811002010B502000DD0FFF7F1FF074C0321207B0843207310010A21FCF784FE2060002010BDFF2010BD00007811002000B504480A218068484302091F
:406A4000FFF7D8FF104600BD781100200248007B8007C00F704700007811002070B558490868002802DA574B01221A70022290430860554800695249C00B4031096A084290
:406A80006CD0012000F0C2FA4F4850497C30FCF767FD4B480E216C30FCF762FD4A4820218430FCF75DFD484814219C30FCF758FD4548FF21C131A430FCF752FD4248FF21DE
:406AC0002F31B030FCF74CFD3F484149BC30FCF747FD3D483F49AC30FCF742FD3D493A48491CB430FCF73CFD37483B49B830FCF737FD35483949CC30FCF732FD3248384924
:406B00000830FCF72DFD30483649A830FCF728FD2D4835498830FCF723FD2B4833498C30FCF71EFD28481921C9029030FCF718FD2F4D287E697E0C020443A87FE97F2D4A01
:406B4000090201432C48914201D1072C08D035229201914208D1042C05D005E0FF2070BD0146042400E0014617486C30FCF7F8FC154821467430FCF7F3FCA87EE97E09027C
:406B8000014301204003814201D0002900D11B490D487830FCF7E4FC2A7F687F010218481143814204D01748814201D0052901D113490A3904488030FCF7D2FC002070BDF1
:406BC00000F02E40E801002000002E4055650000320300002F3F00003102000010520000EC160000FA12000031D000003AE30000C0F0FF0F580B0000580D000002200000FA
:406C00000F0F00000505000070B50646581C80B245086D00002408E0304600F07FF81055000A1119A41C4870A4B2AC42F4D3D80705D0D0182038D15CC47FD454C17770BD65
:406C400030B50A4C002100195B1E07E0541864782502545C2C430480891C89B29942F5DB994201D1515C018030BD000000102E4010B5FF2000F0CAF90F49FF2048700E4840
:406C80001021801D41800121417001700A490020C91C4870FFF7E2FE04000AD100F0DEF807210648FCF74EFC044807211830FCF749FC204610BD0000E8010020CC112E4048
:406CC00030B504465B1C1804450C002308E0204600F024F8241D59005B1CA4B250529BB2AB42F4D330BD000070B500210A4D5B1E0AE0541864782602545C34434619348063
:406D0000001D891C80B289B29942F2DB994202D1515C4019018070BD00102E40014940180088704700102E40014A80180180704700102E4010B50B490020487000F08EF83D
:406D4000002000F089F9002000F076F907210648FCF7F8FB044807211830FCF7F3FB002010BD0000EB010020CC112E4010B506480078012803D102210448FCF7F1FB0249A4
:406D80000020C91E087010BDEB01002070F02E4010B50B46062812D006DC01280CD0032801D1FFF7C7FF10BD0A28FCD00B28FAD105480078107010BDFFF75AFF10BD114699
:406DC000184600F065F910BDEE010020F8B5204DAC6A0127A0071F4E002816DA307806280ED1286A384328621B480069F903084381B219481030FCF7B3FB042000F006F9A0
:406E0000134802212830FCF79DFBE00711D0062000F0FCF80F49FF20C91E48707078002802D1686B38436863094801212830FCF789FBE0050BD53078042802D1052000F04A
:406E4000E5F80348FF2101312830FCF77BFBF8BD40F02E40EB01002000002E4010B503212348FCF77DFB0120FCF788FB20483038406A204C80076178800F890001431C48AE
:406E80000C38FCF76DFB6078002808D0401E022181401820FCF7AAFCC000083800E0B82081B21548FCF75CFB1348032109021438FCF756FB10481149B830FCF751FB45215D
:406EC00089010F48FCF74CFB0D480321001FFCF747FB0C490C48FCF743FB0B480B496038FCF73EFB084801218838FCF739FB10BD70F02E40EE010020D8102E4090890000F3
:406F0000041E2E40FF0F000058122E4020900000044800684007400F022801D0002070470120704700010B4000B5FFF7F1FF002805D009480168C908C900016000BD074892
:406F4000016A490849000162054801690122D2039143016100BD000000010B4040F02E4000002E400849087806280BD148780749002803D1486B400840004863C86A01228D
:406F80001043C86270470000EB01002040F02E400148007870470000EB01002002484078022800D001207047E801002000B50300FFF7F6FB080D050D0B070507090D012077
:406FC00000BD032000BD042000BD022000BDFF2000BD0000074A9168D26889B2064B92B2994204D105498A4201D1012100E000210170704780002E4033D000003FE300000A
:407000000149487070470000EB01002010B50446FCF7C8FA072C01D9FF2C01D102480470FCF7BAFA10BD0000EB0100200149487070470000E801002010B5064A012805D0AA
:407040001921C9021046FCF78BFA10BD1D21C902F8E7000090002E4010B50A4A141D012808D009491046FCF77BFA08492046FCF777FA10BD04491046891CFCF771FA034955
:40708000491DF3E788002E4031D000003AE300000078074AFF2803D04C2804D9553803E01078087070474F380870107070470000EA01002010B50F4A002313600E4A136081
:4070C0000E4B18600E4801600E49012008600E490860000290600E490C4808600D4914300860FF381538506000F0BCF800F0CAF9002010BD0C020020F40100202002002065
:40710000240200201002002000020020881200200402002018020020014610B50020002910D0094B1A689C685118A14209D25868196080188A0704D08A07920F891A091D34
:40714000196010BD002010BDF4010020F8B50024164E671E321F3D463168136806E01422624310328A58521C1BD0641C9C42F6D36A1C14D02C461422544322460C32885099
:407180000C214843FFF7C8FF3168002808510AD031680020103408517068401C70602846F8BD2546E4E73846F8BD000004020020F3B50026F64381B000281BDB1E4909682C
:4071C000884217D80299002914D01B4F142204463F1D54432546396810354859401C09D0FCF7E0F938682F1F4159C359994203DBFCF7D2F93046FEBD214608310091465843
:4072000001590C20704308180C220299FEF775F90948761C001D0068C159B14200D100260549009A091D865008684159491C4151FCF7B2F90020FEBD00020020002803DBD7
