:4000000000400020110000005D0300005D03000080B500AF00F0CEF980B584B000AF021CFB1D1A70204A3B1C0B3312781A701F4A3B1C0A3312781A700423013BFB6018E042
:400040001B4B1868391C0B31FA68131C5B009B18C3185B780B70164B1868391C0A31FA68131C5B009B18C3189B780B70FB68013BFB60FB68002B0ADB0D4B1968FA68131CF1
:400080005B009B185B5CFA1D12789A42D8D9094B3A1C0B3212781A60074B3A1C0A3212781A60BD4604B080BDCCF1FF0FCDF1FF0FD00000201CFF0B4020FF0B4080B500AF4B
:4000C000234B12221A603020FFF7A6FF214B224A1278D2B21A60052000F0E8FB1F4B35221A6000F00BFBFA235B00181C00F0BAFB012000F013FB1A4B1A4A1A601A4B8022B6
:40010000D2051A60194B1A4A1A601A4B194A126808218A431A60FA23DB00181C00F0A8FA154B181C00F0C2FB144BBC2292011A60134B144A1A60144B822212061A60134B08
:400140008022D2021A60124B40221A60BD4680BD3000104028FF0B40FDF1FF0F2CFF0B4004010B40060000800C020B407C002E402D3E00006CF02E40DC050000000301403F
:400180000000014040FF008008010B4000010B401801014080B582B000AF72B6334B00221A60FB1D00221A7023E0FB1D1A78131C5B009B185B002E4A9B183B603B681A78E9
:4001C000597809020A43997809040A43DB781B0613431A1C3B6819795B791B020B439BB2101C191C00F06AF9FB1D1A78FB1D01321A70FB1D1B78012BD7D91E4A1E4B101CF3
:40020000191C00F06BF91D4B1D4A1A601D4B01221A601D4BD82212041A601C4B01221A601B4B992212041A601A4B1A4A1278D2B202210A43D2B21A70174B174A1278D2B21A
:400240003C218A43D2B214210A43D2B21A70114B104A1278D2B216210A43D2B21A70FFF72DFF00F07BF9BD4602B080BD6CF02E40BC1B0000C81B0000DC1B000000000240B5
:40028000070000EE00000440080004401800044000500F4000700F4001700F4010B5064C2378002B07D1054B002B02D0044800E000BF0123237010BD480100200000000065
:4002C000A41B000008B5084B002B03D00748084900E000BF07480368002B03D0064B002B00D0984708BDC04600000000A41B00004C010020C80000200000000090B58BB0B0
:4003000000AF00F0E7FA00F0EBFB012000F0F6FB031C002B1ED03C1C2634002000F012FC031C23803B1C263300229B5E0020191C00F02AFC031C3B62386A00F081FF031C78
:400340000C1C391D044A081C111C1A1C231C01F025F8DAE7D9E7C046A81B000080B500AFFEE7C04680B584B000AF78600F4B1A687B68D3181A1C0E4BD31A802B09DC0B4BC8
:400380001B68FB60094B1A687B68D218074B1A6007E000F0C5FF031C0C221A6001235B42FB60FB68181CBD4604B080BDCC0000208001002080B586B000AF224B7B61224B8A
:4003C0003B61204B7B6135E03B691B68FB603B695B68BB603B699B683B6000237B600CE0FB681A68BB681A60BB680433BB60FB680433FB607B6804337B607A683B689A4293
:40040000EED13B69DB683B6000237B6008E0BB6800221A60BB680433BB607B6804337B607A683B689A42F2D13B6910333B617B69013B7B617B69002BC6D100F077FFFFF7C7
:400440005DFFFEE701000000CC1C000080B582B000AF154B144A126801218A431A6000237B600FE07B68032B04D8104B7A689200D35800E00E4B0F4A796889008B507B680D
:4004800001337B607B682F2BECD9FFF783FE0A4B00221A60044B044A126801210A431A60BD4602B080BDC04600001040000000005D03000000000020C000002080B582B0B4
:4004C00000AF786039607A683B68101C00211A1C00F05BFFBD4602B080BDC04680B586B000AF7860396000233B6100237B612EE07B699B007A68D3181B68BB603B1C0F33B8
:40050000BA681A70BB68FF229343BB6017E03B695B003A68D3181B781A1CBB68D3183A69520039688A1852781A703B6901333B613B1C0F331A783B1C0F33013A1A703B1CA0
:400540000F331B78002BE2D17B6901337B617B69042BCDD9BD4606B080BDC04680B500AF0C4B30221A600C4B03221A600B4B03221A600B4B802212051A600A4B8022920318
:400580001A60094B00221A60012000F00FF8BD4680BDC04608210240300030403000314000003A4000033A40000E3F4080B584B000AF021CFB1D1A700B4B1B68FB60FB1D1F
:4005C0001B78002B05D0FB68802212061343FB6003E0FB685B005B08FB60034BFA681A60BD4604B080BDC04680033A4080B500AF0B4B0B4A126801218A431A60094B094A01
:40060000126830218A4310210A431A60054B054A126807218A4301210A431A60BD4680BD00F02E4000FF2E4080B500AF0E4B0E4A126802218A431A600C4B0C4A1268072160
:400640008A4302210A431A60084B084A126830218A4320210A431A60034B034A126801210A431A60BD4680BD00F02E4000FF2E4080B584B000AF78600023FB60154B154A48
:40068000126801210A431A60134B144A1A60144B134A1268802109020A431A607B68002B13D01023FB600DE0012000F0FFF800F019F8031C002B02D00023FB6005E07B6821
:4006C000013B7B607B68002BEED1FB68181CBD4604B080BD60F02E4078002E400220000010002E4080B500AF034B1A6801231340181CBD4680BDC0460C002E4080B500AF44
:40070000FFF774FF044B044A1268802109060A431A60BD4680BDC04600F02E4080B584B000AF78600C4B1A6801231340FB607B68002B02D0012B03D005E0FFF757FF06E08D
:40074000FFF772FF03E0002000F082F8C046FB68181CBD4604B080BD00F02E4080B584B000AF021C3960FB1D1A7080239B05FB60FB1D1B781F2B02D9002000F069F8FB1D4E
:400780001B7810339B00FA68D3181B68BB60FB1D1B7810339B00FA68D3183A681A60BB68181CBD4604B080BD90B587B000AF0A1CFB1D011C1970BB1D1A70BB1D1B78032B96
:4007C00002D9002000F044F8FB1D1B781F2B02D9002000F03DF8FB1D1A7803231340DB0006337B613C1C133400F027FA031C2370FB1D1B789B08DBB29B0014495B181B687F
:40080000FB607B690322111C99400B1CDA43FB681340FB60BB1D1A787B69111C99400B1CFA681343FB60FB1D1B789B08DBB29B00064A9B18FA681A603B1C13331B78181CB2
:4008400000F0FFF9BD4607B090BDC04600E400E080B582B000AF021CFB1D1A7001BEBD4602B080BD80B582B000AF786008E00C4B1B68181C00F0D8F97B680A4A9B187B60CE
:400880007A6880231B029A42F1D8074B1B687A685343181C00F0C8F9BD4602B080BDC046E00000200080FFFFD800002080B582B000AF021CBB1D1A80BB1D1B88044A127858
:4008C0005343181C00F0B0F9BD4602B080BDC046DC00002080B500AF064B1B78002B04D100F00AF8034B01221A7000F0DDF8BD4680BDC0466401002090B585B000AF0F2004
:400900000321FFF751FF504B0F20191CFFF726FF4E4B01221A604E4B4D4A11684D4A1268002A01DA4C4A00E04C4A0A431A604C4B4C4A1A604C4B4D4A1A604D4B00221A60E8
:400940004C4B4D4A1A604D4B4B4A1A604C4B00221A604C4B00221A604B4B01221A604B4B1B687B607A684A4B13407B607B68012213437B60454B7A681A600023FB605DE018
:4009800080235A00DC239B0113407B60FB689B00404A9B187A681A6080235A00012313400AD0374B364A1168FA680120041C9440221C92B20A431A6080235A0002231340DC
:4009C0000AD0304B2F4A1168FA680120041C9440221C92B20A431A6080235A0080239B00134003D080235B00BB6002E080235B01BB6080235A0080235B00134005D1264BE5
:400A0000FA6852000021D15204E0234BFA6852000021D152BB68214A53438022D2009B18002B01DA1E4C1B19DB129BB219B21D4BFA689200D150FB680133FB60FB68002B83
:400A40009ED0BD4605B090BD090C000020003A4000003A4080033A40400210534002005304003A408C00008018003A400000FF071C003A4010003A400200020014003A40CF
:400A800028023A4038023A4018023A4030003A40FFFFFFDF80003A407401002010270000FF0700007001002080B500AF0A4B1B68002B0EDBC046094B1B68002BFBDB064B68
:400AC000054A1268802109060A431A600A20FFF7EDFEBD4680BDC04600003A4008023A4080B500AF044B044A1268802149020A431A60BD4680BDC04604003A4080B584B08C
:400B000000AF78600023FB607A680323134011D00B4B1A6801231340FB60FB68002B03D17A6802231340F3D1FB68002B02D0044B01221A60FB68181CBD4604B080BDC0466D
:400B400010023A4080B584B000AF78607B68002B02D00020FFF77CFE7B68002B08D17B689B00084A9B181B681B041B0CFB6001E00023FB60FB689BB21BB2181CBD4604B034
:400B800080BDC04680013A4090B585B000AF78600A1CBB1C1A807B68002B02D00020FFF757FEBB1C1A88154B79684900CB5A9BB29BB2D31A9AB2BB1C1A80BB1C00229B5EB6
:400BC000181C00F0E1FA031C181C0D4900F0B2F9031C1C1C0B4B7A689200D358181C00F0D3FA031C201C191C00F07EF8031CFB60FB68181CBD4605B090BDC04674010020CE
:400C0000000020417001002080B582B000AF044B1B687B60024B7A681A60BD4602B080BD10023A40000000000230800803D00138FDD1C046C046C0467047EFF3108072B6E1
:400C4000704780F310887047002934D00123002210B488422CD301242407A14204D2814202D209011B01F8E7E400A14204D2814202D249005B00F8E7884201D3401A1A434A
:400C80004C08A04202D3001B5C0822438C08A04202D3001B9C082243CC08A04202D3001BDC082243002803D01B0901D00909E3E7101C10BC7047002801D00020C04307B495
:400CC000024802A14018029003BDC046190000000029F0D003B5FFF7B9FF0EBC4243891A1847C0467047C046F0B55F4656464D464446F0B446024500C00F85B00F1C760AF8
:400D00002D0E804641D0FF2D26D08024240400212643F6007F3D89468B46F90F7C027800640A000E00918A463CD0FF2834D080231B041C430023E4007F380193009F43462A
:400D4000019A7B4049469C4611430F2900D971E0764F89007F58BF46002E3ED10822022391469B46D9E75A46341CC24601920199022937D0032900D1CFE0012900D0ABE040
:400D800053460B400022002632E0002E19D10421012289469346C0E7221C531E9A4102320192CBE701270197002CC7D0201C00F099FA431F9C4076235B420021181A0191A8
:400DC000BCE7301C00F08EFA7625431F9E406D4200232D1A99469B469FE70C23032199468B469AE7D446012367463B40FF2200267602D205700ADB071043184305B03CBC1B
:400E000090469946A246AB46F0BD80260023F603FF22EDE700220026EAE78020C00306423BD0044239D1061C26437602760A009BFF22DDE7281A039076016401A64239D3F9
:400E4000361B1A2201230120311C5B007600002901DBB44201D8361B0343013A002AF3DC741EA641341C1C43039A7F32002A27DD630704D00F232340042B00D0043427010D
:400E800003D52B4B039A1C408032FE2A0BDD012361460B40FF220026AAE706437602760A4346FF22A4E7A40101236746660AD2B23B409DE7039F1B22013F03970023C2E7D7
:400EC0007E23039F5B42DB1B1B2B07DD012361460B40002200268BE7D446C5E7221CDA40039B9E339C40231C5C1EA34113435A0704D00F221A40042A00D004335F0105D597
:400F0000012361460B400122002671E79E01624601231340760A00226AE78026F60326437602760A5346FF2262E7C046F01B0000FFFFFFF7F0B55F4656464D464446F0B49A
:400F40004402460083B00F1C640A360EC50F002E41D0FF2E22D080231B0400201C43E4007F3E82468046391C4B007F02C90F7F0A1B0E8B463BD0FF2B34D08022120417436C
:400F8000FF007F3B00215A466A40019252460A430F2A63D87A48920082589746002C3FD10822022392469846DDE70195404602282AD1019A01251540FF2300246402DB052E
:400FC000600AED071843284303B03CBC90469946A246AB46F0BD002C27D10420012282469046C0E7391C4A1E91410231CBE70121002FC8D0381C00F075F9431F9F4076234E
:401000005B421B1A0021BEE7032800D1AEE001284FD1019842461040C5B200230024CDE70C2303209A4680469DE7201C00F05AF97626431F9C4076420023361A9A469846A4
:4010400091E780240025E403FF23B7E75B463C1C01938846AAE73C1C8846A7E7250C24043A0C240C3F04F6183F0C211C231C794353436F435543FB180A0C9B18B1469F42B1
:4010800002D980225202AD1809041A04090C521894011B0C611E8C41920EED181443AD012C43230105D5012263080120144081441C434B467F33002B2DDD600704D00F22C6
:4010C0002240042A00D00434220103D52D4B1C404B468033FE2B17DD019B01251D400024FF236BE78020C003044208D0074206D1041C3C436402640A5D46FF235EE704430C
:401100006402640AFF2359E70198A4010125640ADBB2054052E77E235B424A469B1A1B2B05DD019B01251D400024002346E7221CDA404B469E339C40231C5C1EA3411343D5
:40114000580704D00F221A40042A00D004335A0105D5019B01251D40002401232EE701989C010125640A0540002327E78027FF03019B3C43640201251D40640AFF231DE74A
:40118000301C0000FFFFFFF770B5041E3CD0C60F00D04442201C00F0A5F89E23251C1B1A962B0CDC083884406402640ADBB2321C6402DB05600AD2071843104370BD992BED
:4011C0000ADD0522121A211CD1400A1C011C1B318D40691E8D411543052801DD421F9540164C2C406A0704D00F221540042D00D0043461010CD59F23181AFF281AD0A4015E
:40120000640AC3B2321CD3E7002200230024CFE7E408FF2B04D06402640ADBB2321CC7E7002C04D08020C00304436402640A321CFF23BDE7321CFF230024B9E7FFFFFFFB9F
:4012400043001B0E5A1C4102D2B270B54C0AC50F012A17DDE02292006407090B9818002200231E0D221C34050C431B49400540082140014349004908ED070B1C2B43101C79
:40128000191C70BD002B15D1002C1CD0201C00F029F80A281ADC0B21091A231CCB40191C031C15339C400D4B0903181A4005090B400DD4E7002C03D06407090B0848CEE7A3
:4012C00007480021CBE700200021C8E7011C0B398C40211C0024E6E7FFFF0F8089030000FF0700001C2101231B04984201D3000C10391B0A984201D3000A08391B099842C3
:4013000001D30009043902A2105C40187047C04604030202010101010000000000000000014B18687047C0464401002070B50E4B0E4D0024ED1AAD101E1CAC4204D0A30011
:40134000F35898470134F8E700F0AEFC084B094D0024ED1AAD101E1CAC4204D0A300F35898470134F8E770BDB41C0000B41C0000B41C0000BC1C000010B50023934203D022
:40138000CC5CC4540133F9E710BD031C8218934202D019700133FAE7704700000EB400B59CB01DAB04CB822202A992008A810A4A02908A604A6101225242CA81074A0861DA
:4013C00010681D9A019300F06BF8029A002313701CB008BC03B01847FFFFFF7F44010020F0B58D6885B0071C0C1C03920193AB4245D390228B89D20013423DD062690326DC
:40140000564309692068F20F401A96190290021C0198013212187610964200D2161C381C5A050FD5311C00F021FB051E13D0029A2169FFF7A1FFA289184B1340802213437C
:40144000A38111E0321C00F065FB051E0CD1381C216900F0C3FA0C233B60A389402213430120A381404217E0029B2561ED1825606661019DF61AA6600198A84200D2019DA7
:401480002A1C2068039900F090FAA2680020531BA36023685D19256005B0F0BD7FFBFFFFF0B59FB0039005938B890E1C171C19060FD53269002A0CD1402100F0D7FA306066
:4014C0003061002803D103990C230B60C9E04023736106AD00236B6120236B763023AB763C1C2378002B03D1E21B029211D003E0252BF9D00134F4E70398311C3A1C029BC4
:40150000FFF76EFF013000D1A6E06969029A8B186B612378002B00D19EE0012252426A606A4600235B3201342B60EB60AB601370AB654E4F2178381C052200F02BFA002856
:4015400007D0C71B2B680120B840184328600134EFE72B68D90603D56A4620215B3211701A0703D56A462B215B32117022782A2A01D0099B0EE0059A111D12680591002A74
:4015800001DB099204E05242EA60022213432B60013409E02278303A092A04D80A214B4301349B18F6E7099323782E2B18D163782A2B09D1059B02341A1D1B680592002B69
:4015C0000DDA01235B420AE0013400232278303A092A04D80A214B4301349B18F6E70793234F2178381C032200F0D4F9002806D0C71B2B684020B840184328600134217819
:401600001C480622671C297600F0C4F9002812D0194B002B06D1059B0722073393430833059314E005AB00930398291C321C134B00E000BF07E005AB00930398291C321C79
:401640000E4B00F091F804900499013104D06A69049953186B6143E7B3895A0601D40B9801E0012040421FB0F0BDC046721C0000781C00007C1C000000000000E1130000C8
:40168000F7B5151C01930A698B68061C0C1C934200DA131C221C2B6043321278002A01D001332B602068800602D52B6802332B60216806270F401FD0231C43331B785A1EBD
:4016C0009341226892061FD5E11840313020C870211C5A1C45310978A21840320233D17012E0221C301C019919320123089FB847013011D0009F01370097E0682968009F9F
:40170000431A9F42EDDBD7E7221C301C01994332089FB847013002D10120404223E0206806212B68E26801400025042903D1D51AEB43DB171D40A26823699A4201DDD31A60
:40174000ED1800270097009FAF420BDA221C301C01991A320123089FB8470130DCD0009F0137EFE70020FEBDF0B50D1C8BB0433506920590079304950B7E0C1C109A6E2BBD
:4017800000D1A7E011D8632B22D009D8002B00D1B0E0582B00D0C0E045310B707B4D4EE0642B1CD0692B1AD0B7E0732B00D1A5E009D86F2B29D0702B00D0AEE00E68202377
:4017C00033430B6036E0752B1FD0782B32D0A4E013680D1C191D423511601B689FE0216813680E0603D5191D11601E6805E04806F9D5191D116000215E5E644B002E3BDAE2
:40180000049D2D2276422A7036E0216813680E0603D5191D11601E6804E04806F9D5191D1E881160594B227E039308276F2A1ED00A271CE0231C78214533554D1970116835
:401840002368081D039510601E0601D50E6802E05806FBD50E88D90702D52022134323601027002E03D1226820239A432260231C002243331A7001E003930A276368A3608C
:40188000002B03DB2568042295432560002E02D1049D002B0ED0049D301C391CFFF718FA0398013D435C301C2B70391CFFF7CCF9061EF1D1082F09D12168C90706D56268B6
:4018C00023699A4202DC013D30232B70049E731B23612AE0086813684969050604D5181D10601B68196005E04606F8D5181D10601B68198000232361049D16E01368191DE8
:4019000011601D68281C00F03DF963682061984200D923612069606004E0251C42352B7001232361049E00233370079E05980096211C09AA069BFFF7A3FE013002D101200F
:40194000404221E02A1C059806992369079DA8470130F4D02668B60705D4099BE068984212DA181C10E00025E0680999431A9D42F3DA221C0598069919320123079EB047B7
:401980000130DCD00135EFE70BB0F0BD831C0000941C0000C9B28218904204D003788B4202D00130F8E70020704770B5814201D300230CE08C18A042FAD28518131C013BA6
:4019C0000BD351426618F65C6918CE54F7E7934203D0CC5CC4540133F9E770BD30B5002940D004390B68002B00DAC9181E4A1368141C002B02D14B60116033E099420FD24C
:401A000008680A189A4205D113685268C01808604A6000E04B60216024E08A4203D8131C5A68002AF9D11D685C198C420BD10968691858181960904214D114685268091919
:401A400019605A600EE08C4202D90C23036009E008680C18944203D114685268001908604A60596030BDC0466C01002070B50323CD1C9D430835061C0C2D01D20C2501E0B8
:401A8000002D3FDB8D423DD3204B1C681A1C211C002913D00868431B0DD40B2B02D90B60CC181EE08C4202D1636813601AE0486860600C1C16E00C1C4968E9E7144C20688D
:401AC000002803D1301C00F04BF82060301C291C00F046F8431C15D0C41C03239C4384420AD12560201C0B300722231D9043C31A0BD05A42E25008E0211A301C00F030F81D
:401B00000130EED10C233360002070BD6C01002068010020F8B5061C0C1C151C002904D1111CFFF7A3FF041C18E0002A03D1FFF755FF2C1C12E000F02CF8A8420ED2301CE1
:401B4000291CFFF793FF071E07D0211C2A1CFFF713FC301C211CFFF741FF3C1C201CF8BD38B5074C0023051C081C2360FEF7FAFB431C03D12368002B00D02B6038BDC046B8
:401B8000780100200023C25C0133002AFBD1581E704704390B68181F002B02DAC8581B18181F704700000000252B312E336620566F6C7473000000000400000000300F40C2
:401BC000000400400F40000404300F4001310F4001330F4002400F4002410F4032013E0458045F011B04AB045320D420AB20EE20340E0000E60D0000140E00006E0D000093
:401C0000140E00000A0E0000140E00006E0D0000E60D0000E60D00000A0E00006E0D0000660D0000660D0000660D00001A0E00005C10000056100000561000004C1000003F
:401C4000AC0F0000AC0F0000421000004C100000AC0F000042100000AC0F00004C100000AA0F0000AA0F0000AA0F0000E41000004300232D302B2000686C4C006566674558
:401C800046470030313233343536373839414243444546003031323334353637383961626364656600000000F8B5C046F8BC08BC9E467047C50200004D040000F8B5C04602
:401CC000F8BC08BC9E4670479D020000E01C0000C80000208000000038000000000000000000000080010020C0F1FF0F006CDC0280BB0000300000000000C05D0000000064
:401D000000000000000000000000000000000000000000000000000000000000701C0000000000000000000000000000000000000000000000000000000000000000000017
:401D400000000000000000000000000000000000000000000000000000000000E400002000000000000000000000000000000000000000000000000000000000000000005F
:401D80000000000000000000000000000000000000000000000000000000000000000000000000000000000000000000000000000000000000000000000000000000000023
:401DC00000000000000000000000000000000000000000000000000000000000000000000000000000000000000000000000000000000000000000000000000000000000E3
:401E000000000000000000000000000000000000000000000000000000000000000000000000000000000000000000000000000000000000000000000000000000000000A2
:401E40000000000000000000000000000000000000000000000000000000000000000000000000000000000000000000000000000000000000000000000000000000000062
:020000040001F9
:0200000490303A
:020000004907AE
:0200000490402A
:4000000000000000000000000000000000000000000000000000000000000000000000000000000000000000000000000000000000000000000000000000000000000000C0
:400040000000000000000000000000000000000000000000000000000000000000000000000000000000000000000000000000000000000000000000000000000000000080
:0200000490501A
:0C00000000020E34119E00010E3D5AA5B6
:0200000490600A
:0100000001FE
:00000001FF