:400000000040002011000000690E0000690E000080B500AF00F056FF80B584B000AF021CFB1D1A70204A3B1C0B3312781A701F4A3B1C0A3312781A700423013BFB6018E086
:400040001B4B1868391C0B31FA68131C5B009B18C3185B780B70164B1868391C0A31FA68131C5B009B18C3189B780B70FB68013BFB60FB68002B0ADB0D4B1968FA68131CF1
:400080005B009B185B5CFA1D12789A42D8D9094B3A1C0B3212781A60074B3A1C0A3212781A60BD4604B080BDCCF1FF0FCDF1FF0FE80000201CFF0B4020FF0B4080B500AF33
:4000C000284B12221A603020FFF7A6FF264B274A1278D2B21A60052002F0EEFE244B35221A6002F06FFCFA235B00181C02F0C0FE012002F077FC1F4B1F4A1A601F4B8022AF
:40010000D2051A601E4B1F4A1A601F4B1E4A126808218A431A60FA23DB00181C02F00CFC1A4B181C02F0C8FE194BE82252011A60184B194A1A60194BC82252011A60154BF9
:40014000174A1A60174B822212061A60164B8022D2021A60154B41221A60154B40221A60BD4680BD3000104028FF0B40FDF1FF0F2CFF0B4004010B40060000800C020B406F
:400180007C002E406A2D00006CF02E40DC050000040301400000014041FF00800003014040FF008008010B4000010B40180101400401014080B582B000AF72B6454B002297
:4001C0001A60FB1D00221A7023E0FB1D1A78131C5B009B185B00404A9B183B603B681A78597809020A43997809040A43DB781B0613431A1C3B6819795B791B020B439BB21A
:40020000101C191C00F0E2FEFB1D1A78FB1D01321A70FB1D1B78012BD7D9304BEE2212061A602F4B992212041A602E4BD82212041A602D4B20221A602C4BC42292021A6003
:400240002B4B20221A602B4BC0221A602A4BB022D2031A60294B802212021A60284BC1221A60284BD82212041A60274B01221A60264B992212041A60254B992212041A60ED
:40028000244B992212041A60234B992212041A60224B224A1278D2B202210A43D2B21A701F4B1F4A1278D2B23C218A43D2B214210A43D2B21A70194B184A1278D2B216213C
:4002C0000A43D2B21A70FFF7F9FE00F08FFEBD4602B080BD6CF02E40C03B010000000240000102400800044000010440080104401801044000020440080204400C020440DB
:4003000000030440080304401803044000500F4010500F4020500F4030500F4000700F4001700F4010B5064C2378002B07D1054B002B02D0044800E000BF0123237010BDFC
:400340003004002000000000C835010008B5084B002B03D00748084900E000BF07480368002B03D0064B002B00D0984708BDC04600000000C835010034040020C8000020F2
:400380000000000090B589B002AF786039607B68262B00D1CFE01DD8212B00D194E00DD8022B00D17BE002D8012B39D05BE1032B00D17CE0042B00D17EE054E1232B00D1CD
:4003C00097E000D290E0242B00D19AE0252B00D1A9E048E12C2B00D114E10BD8282B00D1E6E000D2D9E0292B00D1FBE02A2B00D100E138E14C2B00D11AE106D8412B00D1E4
:4004000005E1422B00D10EE12DE182225200934200D11EE10622FF32934200D11EE122E13C1C1434002000F0F3FF031C23803B1C14331B88002B07D03B1C14331B888B4A42
:40044000101C191C02F07EFF894B181C02F07AFF3B1C0833181C03F0F9FE3B1C173306221A7012E03B1C17331B78013B3A1C0832D35C804A101C191C02F064FF3B1C1733F4
:400480001A783B1C1733013A1A703B1C17331B78002BE7D1784B181C02F0D0FFE3E03B681B78764A101C191C02F04CFFDBE0744B181C02F0C3FFD6E03B681B78714A101CE9
:4004C000191C02F03FFFCEE03B681B78191C3B685B781A1C3B689B783868C078041C6A48009402F02FFFBEE0684B181C02F0A6FFB9E03B681B68664A101C191C02F022FFBF
:40050000B1E03B683B613B691B78191C3B695B781A1C3B699B783869C078041C5D48009402F010FF9FE03B681B785B4A101C191C02F008FF97E0594B1B78594A101C191C82
:4005400002F000FF554B1B78042B25D1554B181C02F074FF012001F059FF002001F030FF012001F079FFC04601F0F4FF021C4E4B196880231B020B4001D0012300E00023A0
:40058000D318002BF0D101F08BFF02F0FBF802F09BF802F0F5FC66E065E03B681B78434A101C191C02F0CEFE012001F02FFF5AE03F4B181C02F042FF3C1C1434002000F014
:4005C00027FF031C23803B1C14331B88002B08D03B1C14331B88374A101C191C02F0B2FE41E040E03B681B78334A101C191C02F0A9FE38E03B681B78304A101C191C02F001
:40060000A1FE30E02E4B181C02F018FF2BE02D4B5B781A1C2B4B1B782B49081C111C1A1C02F090FE1FE0294B181C02F007FF1AE03B689B89264A101C191C02F083FE3B68FE
:400640000433181C00F092FA3B6818680DF0CAFF09E0204B181C02F0F1FE04E01E4B181C02F0ECFEC046BD4607B090BD0036010024360100543601005C3601006036010090
:400680007C36010090360100A8360100E8360100043701002C370100703701008E25002088370100C037010008022440CC370100F4370100183801003C38010054380100FE
:4006C0007C38010094250020A4380100C4380100E0380100FC3801002439010080B500AF02F0EAFA021C8023DB00134019D00E4B1B78032B0BD10D4B1B7801225340DAB231
:400700000A4B1A70094B1B78181C01F07FFE084B1B685A1C064B1A608023DB00181C02F0D9FABD4680BDC0468E250020CC0000205004002080B500AF02F09EF90E4B181C50
:4007400002F02AF80120012102F0D4F90120012102F000FA094B0120191C02F065FA012002F0EEFA80235B00181C02F02BFA02F059F9BD4680BDC046DD060000FF7F00000A
:4007800090B583B000AF62B601F0B8FE394B181C02F054FE012001F013FE012001F036FE012001F059FE344B181C00F0E9FD334B181C00F061FC324B181C01F05BF901F016
:4007C00015FCFFF7B7FF2F4B1B78012B33D0FC1D032003F033FD031C237072B6BC1D05F000F8031C2370FB1D1B78032B1CD1BB1D1B78042B03D0BB1D1B78062B1AD101F0A4
:40080000A9FE021C204B196880231B020B4001D0012300E00023D318002B02D102F07AFB08E002F05DFB05E0BB1D1B78022B01D002F056FB62B6134B1B78022B16D1134B76
:400840001B68002B12D0114B00221A60104B1B88012B03D100F0B4F803F0FCFC0D4B1B88012B03D100F036FA03F0F4FC03F0F2FCA9E7C0464C39010085030000090C0000D3
:40088000990800008E2500200802244050040020540400206404002090B585B000AF786039603B1C0F333A6892781A70394A7B68101C191C02F046FD7B68793BFF3B0B2B76
:4008C0005DD89A00344BD3181B689F463B1C0F331B78324A101C191C02F034FD3B1C0F331B78002B03D12E4B01221A804EE04DE03B1C0F331B782B4A101C191C02F022FD5C
:400900003B1C0F331B78002B03D1254B00221A803CE03BE0244B181C02F090FD36E03B1C0F331B78214A101C191C02F00BFD3B685B68181C00F01AF93B1C0F331B78032B08
:400940001CD13B685B681B683C1C0C34181C00F0F1FD031C2380164B3A1C0C3212881A803B1C0C331B88002B08D0124B01221A60114B1B685A1C104B1A6007E006E00F4B85
:40098000181C02F05BFDC04600E0C046BD4605B090BDC0467C390100383A01009039010054040020B8390100E4390100043A0100D4000020D000002050040020203A010055
:4009C000B0B584B000AF504B1B88002B00D198E04E4B1B685A1E4D4B1A604C4B1B68002B00D08EE0484B1B881A1C484B1A60484B1B78002B1CD0464B00221A7001F0C4FC30
:400A000001F054FC022001F05BFC012001F096FC031C9B02181C3F4902F098FB031CBB60BB68181C01F0FEFD021C3B4B1A600BE0394B1B685A1C384B1A60374B1B68282B12
:400A400002DD354B0F221A60344B1B781A1C012313400CD0304B1A68131CDB009B18181C052102F0C1FB031C2033FB6002E02A4B1B68FB60FB681B021B0AFB60FB68284A38
:400A8000101C191C00F0A2F8BC1D264B234D1A785B781B021A4300231204120C1B0C1B041343181C002105222B1C01F0BBF9031C2380BB1D1B88002B0AD0BB1D1B881A4A36
:400AC000101C191C02F03EFC184B00221A8011E0FB689BB21AB2114B1B78191C01230B4001D0462300E043231149081C111C1A1C02F028FC094B1B7801225340DAB2074B58
:400B00001A70BD4604B0B0BDD4000020D0000020D6000020B80B000060040020580400205904002094250020683A010054040020943A010080B586B000AFF860B9607A60C5
:400B400000237B6109E0BB685A1CBA601B78181C01F0EAFC7B6901337B617A697B689A42F1DB7B68181CBD4606B080BD80B584B000AF78603B1C0E3300221A8013E07B68B3
:400B80001A683B1C0E3300215B5ED3181B780D4A101C191C02F0D6FB3B1C0E331A883B1C0E3301321A803B1C0E3300215A5E7B689B889A42E3DB044B181C02F03FFCBD46E5
:400BC00004B080BDB03A0100B83A010080B582B000AF786039603B68DAB27B681A707B6801333A68120AD2B21A707B6802333A68120CD2B21A707B6803333A68120ED2B2DB
:400C00001A70BD4602B080BD80B584B000AF786039603B1C0F333A6892781A70264A7B68101C191C02F08EFB7B681B3BFF3B052B38D89A00214BD3181B689F463B1C0F330C
:400C40001B781F4A101C191C02F07CFB3B1C0F331B78002B02D11B4B01221A803B1C0F331B78002B03D1184B01221A8021E020E03B1C0F331B78154A101C191C02F062FBDA
:400C80003B1C0F331B78002B02D10E4B00221A803B1C0F331B78002B03D10B4B00221A8007E006E00A4B181C02F0C8FBC04600E0C046BD4604B080BDBC3A0100383B010062
:400CC000D03A01006404002066040020F83A0100203B010090B587B002AF584B1B685A1E564B1A60554B1B68002B00D0A2E0534B03221A60524B1B68F0229343FB60504B87
:400D0000FA68C0210A431A60192002F0B1F84C4B1B68F0229343FB60494BFA6870210A431A60012002F0A4F801F0C0FA022001F0C7FA3C1C0A34002001F000FB031C238098
:400D40003B1C0A3300215B5E80229003191C02F04BFA031C7B607A683A4B9A4203DC7B1C00221A702FE07A68374B9A4211DC7B6836495A18131CDB009B1A9B009B18181CB4
:400D8000C823990002F030FA031CDAB27B1C1A7019E07A682E4B9A4212DC7B682D495A18131CDB009B18DB009B1A181CC82102F01BFA031CDBB21D33DAB27B1C1A7002E0E2
:400DC0007B1C64221A707B1C1B78092B03D8002001F042FB02E0012001F03EFBBC1C1E4B7A1C00921A785B781B021A4300231204120C1B0C1B041343181C002100220123C2
:400E000000F02CFA031C2380BB1C1B88002B0AD0BB1C1B88114A101C191C02F093FA104B00221A8006E07B1C1B780E4A101C191C02F088FABD4605B090BDC046D80000204F
:400E400000003A40CF070000EF0A000030F8FFFFB70B000010F5FFFF94250020503B010066040020783B010080B500AFFEE7C04680B584B000AF7860104B1A687B68D31831
:400E80001A1C0F4BD21A8023DB009A4209DC0B4B1B68FB60094B1A687B68D218074B1A6007E002F003FA031C0C221A6001235B42FB60FB68181CBD4604B080BDE40000208C
:400EC000A825002080B586B000AF224B7B61224B3B61204B7B6135E03B691B68FB603B695B68BB603B699B683B6000237B600CE0FB681A68BB681A60BB680433BB60FB68B3
:400F00000433FB607B6804337B607A683B689A42EED13B69DB683B6000237B6008E0BB6800221A60BB680433BB607B6804337B607A683B689A42F2D13B6910333B617B69EE
:400F4000013B7B617B69002BC6D102F0B5F9FFF717FCFEE7010000003042010080B582B000AF154B144A126801218A431A6000237B600FE07B68032B04D8104B7A68920051
:400F8000D35800E00E4B0F4A796889008B507B6801337B607B682F2BECD9FFF70BF90A4B00221A60044B044A126801210A431A60BD4602B080BDC046000010400000000008
:400FC000690E000000000020C000002080B582B000AF786039607A683B68101C00211A1C02F0A8F9BD4602B080BDC04680B500AF094B03221A60094B03221A60084B094AF0
:401000001A60094B074A1A60084B00221A60012000F00EF8BD4680BD300030403000314000033A400100020040033A40000E3F4080B584B000AF021CFB1D1A700B4B1B6815
:40104000FB60FB1D1B78002B05D0FB68802212061343FB6003E0FB685B005B08FB60034BFA681A60BD4604B080BDC04680033A4080B500AFBD4680BD80B582B000AF78600A
:40108000024B7A681A60BD4602B080BD6804002080B586B000AF3B60FB1D1870BB1D19707B1D1A703B1C163300221A80FB1D1B78002B0BD1BB1D1B78002B07D17B1D1B788A
:4010C000012B03D13B681B78642B04D93B1C163301221A8021E0FB1D1B78134ADB00D3185A883B1C08331A817B1D1B789AB23B1C08339A803B1C08333A681A603B1C0833B0
:40110000181C0021002200230DF0C4FE031C002B03D03B1C163301221A803B1C16331B88181CBD4606B080BDCC3B010090B587B000AF78603B1C173300221A703B1C163377
:4011400000221A70414B1B68002B00D176E07B689A8920239A4265D13B1C17331B783C4ADB00D3185B885A1E3A49131C9B009B189B00CB185A6880235B01134045D07B68A2
:401180001A1D7B683C1C1634101C00211A1C40230DF080FE031C23703B1C16331B78002B37D13B1C0C337A6812881A803B1C0C333A1C173212789A703B1C0C330022DA7083
:4011C0003B1C0C3300225A607B685B68181C00F0B1F9031C1A1C012313409BB2002B09D01A4B1B688D2251003A1C0C32081C111C98470EE0154B1B681C22111CFF313A1C7E
:401200000C32081C111C984703E03B1C163306221A70114B1B78DBB201229343DAB20E4B1A700BE03B1C17331A783B1C173301321A703B1C17331B78002B88D03B1C163354
:401240001B78181CBD4607B090BDC04668040020CC3B0100A03C01009725002090B587B000AF3C1D2080081C111C1A1CFB1C1870BB1C19707B1C1A703C1C1634FB1C187839
:40128000BB1C19787B1C1A78BB6AFFF701FF031C23803B1C16331B88002B44D1254B1B78022B05D03B1C1633832252001A803AE02023002B13D020235A1E1F49131C9B00AF
:4012C0009B189B00CB1808339B68181C00F032F9031C1A1C012313409BB2002B05D13B1C16330422FF321A801DE0FB1C1B78134ADB00D3185A883B1C08331A813B1C08331A
:40130000BA6A1A607B1C1B789AB23B1C08339A803C1C16343B1D3A1C08321868111C0DF017F9031C23803B1C16331B88181CBD4607B090BD8E250020A03C0100CC3B0100B1
:4013400080B500AF064B00221A70064B00221A70054B00221A7000F009F8BD4680BDC04697250020902500209625002080B500AFFFF77EFE00F070FB00F072FBBD4680BD82
:4013800090B585B000AF78603B1C0E3301221A80194B1B78002B04D1FFF7D2FF164B01221A707B68002B1FD0144B7A681A603C1C0E34134A134B101C191C172202F060FF13
:4013C000031C23803B1C0E331B88002B0CD10E4B01221A703C1C0E340C4B181C202115220DF024FD031C23803B1C0E331B88181CBD4605B090BDC04670040020842500208E
:401400009D170000980400208E250020A03C010090B585B000AF021CFB1D1A70294B1B78042B42D1284B1B78DBB21A1C042313403BD1FB1D1B78002B0BD1244B1E221A820E
:40144000224B5B6820221A80204B5B6830225A8010E0FB1D1B78012B0CD11C4B1E221A821A4B5B68C822D2001A80184B5B68FA2212015A80164BFA1D12781A703C1C0E344C
:40148000124B181C0BF014FF031C23803B1C0E331B88002B08D10C4B1B78DBB204221343DAB2094B1A7005E004E03B1C0E33832252001A803B1C0E331B88181CBD4605B016
:4014C00090BDC0468E250020972500201C0100209625002080B584B000AF78600A1CFB1C1A700023BB60BB68002B20D07B689A79BB681A703B1C0F3300221A7012E03B1C6E
:401500000F331B780133BA68D3183A1C0F32127879688A5C1A703B1C0F331A783B1C0F3301321A703B1C0F331B78052BE7D9BD4604B080BD80B582B000AF78607B681B782E
:401540001A1C7B6801331B781B029BB213439BB2181CBD4602B080BD90B585B000AF78603B1C0F3300221A707B689A890B239A4237D17B681A1D7B683C1C0F34101C002115
:401580001A1C40230DF086FC031C23703B1C0F331B78002B1DD17B685B68181CFFF7CAFF031C1A1C022313409BB2002B08D0104B1B68822251007A68081C111C984708E099
:4015C0000B4B1B680622111CFF317A68081C111C9847084B1B78DBB201229343DAB2054B1A703B1C0F331B78181CBD4605B090BD842500209725002090B585B000AF78609E
:401600003C1C0F347B68181CFFF7A6FF031C23703B1C0F331B78002B0ED1264B1B78DBB21A1C0123134007D03C1C0F347B68181CFFF77CFD031C23703B1C0F331B78002B36
:401640000ED11C4B1B78DBB21A1C0123134007D03C1C0F347B68181C00F06EFA031C2370144B1B78DBB21A1C012313401FD13B1C0F331B78002B16D03B1C083312229A709B
:401680007B689A893B1C08331A803B1C08333A1C0F321278DA707B683A1C08321868111C0CF02CFF03E07B6818680CF09BFFBD4605B090BD9725002080B582B000AF786009
:4016C0007B68002B0AD0074B1B78DBB21A1C0123134003D07B68181C00F01CFCBD4602B080BDC0469725002080B500AF034B00225A70024B00221A70BD4680BD94250020ED
:4017000080B582B000AF7860BD4602B080BDC04680B500AFBD4680BD80B584B000AF78603B1C0E3300221A707B689B79002B1CD13B1C0F3300221A7012E03B1C0F331B78F9
:401740007A68D35C002B04D03B1C0E3301221A700BE03B1C0F331A783B1C0F3301321A703B1C0F331B78052BE7D93B1C0E331B78181CBD4604B080BD80B582B000AF021C05
:40178000BB1D1A80BD4602B080BDC04680B582B000AF7860BD4602B080BDC04680B584B000AF021C3960FB1D1A709F4B1B78DBB201221343DAB29C4B1A70FB1D1B78712BA1
:4017C00000D916E19A00994BD3181B689F463B1C0C3307221A703B1C0C3300225A703B1C0C33181C04F02CF83B1C0C3307221A703B1C0C3301225A703B1C0C33181C04F011
:401800001FF88B4B1B68181CFFF786FF031C002B11D0874B1B68181C02F020FD844B1B68181C0021FFF756FE814B1B68181C0121FFF750FE0DE07F4B181C02F00FFD7D4B3B
:40184000181C0021FFF746FE7A4B181C0121FFF741FE03200BF0EEFB774B04221A70C9E03B68181CFFF74CFFC4E03B681A78734B1A70BFE06C4B1B78DBB21A1C20231340EC
:401880000ED16F4B1B78102B02D16D4B0522DA706C4B1A786A4B101C191C0BF0D3FCA9E0A8E03B68181CFFF771FFA3E03B68181CFFF76CFF604B02221A709BE05E4B0422F0
:4018C0001A7097E05C4B1B78022B41D0564B1B78DBB21A1C012313403AD0534B1B78DBB21A1C042313400BD0534B03221A704E4B1B78DBB204229343DAB24B4B1A7027E0F9
:40190000494B1B78DBB21A1C082313400BD04A4B04221A70444B1B78DBB208229343DAB2414B1A7014E0444B1B78032B10D1424B04221A70444B1B78002B09D10120FFF72E
:4019400067FD031C002B03D13B4B03221A7051E050E03B681B88181CFFF70EFF4AE0394A3B68111C1A1C0223081C111C1A1C01F0D8FC344B1B781A1C131C5B009B185B00CE
:40198000324A9B18324A111C1A1C0623081C111C1A1C01F0C6FCFFF7BBFE2BE0FFF7A4FE28E03B685B88162B05D83B1C0E333A6852881A8003E03B1C0E3317221A803B6819
:4019C0003A1C0E321288198800230904090C1B0C1B040B43181C111C0CF09CFD0AE03B68181CFFF709FE05E03B68181CFFF764FE00E0C0460C4B1B78DBB21A1C112313405B
:401A00000FD0094B1B78DBB201229343DAB2064B1A70104B1B68FA1D11783A68081C111C9847BD4604B080BD97250020803F010038010020300100208E25002090250020C1
:401A4000880100209425002096250020803C0100882500208425002080B500AFBD4680BD80B500AF024B00221A80BD4680BDC0463411002080B582B000AF7860024B7A68DD
:401A80001A60BD4602B080BD3011002080B586B000AF3B60FB1D1870BB1D19707B1D1A703B1C163300221A80FB1D1B78032B03D8BB1D1B78012B04D93B1C163301221A80A0
:401AC00030E0FB1D1A78BB1D18781A49131C5B009B181B185B00CB189A883B1C08331A813B1C08331B89002B18D07B1D1B789AB23B1C08339A803B1C08333A681A603B1CF3
:401B00000833181C002100220DF0A8F9031C002B08D03B1C163301221A8003E03B1C163301221A803B1C16331B88181CBD4606B080BDC0464841010090B589B000AF786094
:401B40003B1C1E3300221A703B1C1D3300221A70B04B1B68002B00D155E13B1C1F3300221A7045E17B6899893B1C1F331A78AA48131C5B009B185B00C3189B8899420ED012
:401B80007B6899893B1C1F331A78A348131C5B009B185B00C3185B88994200D021E13B1C0C337A6812881A803B1C0C333A1C1F3212789A707B681A1D3B1C0C335A607B682D
:401BC00099893B1C1F331A789348131C5B009B185B00C3185B88994200D078E03B1C1F331B78032B4FD17B685B683C1C1A34181CFFF7A0FC031C23803B1C1A331B88002B84
:401C000041D03B1C1F331A783B1C0833101C01210422FFF73BFF031C002B34D13C1C18343B1C0833181CFFF785FC031C23803C1C16343B1C08330233181CFFF77BFC031C07
:401C400023807B685B683C1C1A34181CFFF772FC031C23803B1C1A331B88002B13D03A1C1A323B1C183312881B889A4207D33A1C1A323B1C163312881B889A4203D93B1C01
:401C80001E3380221A703B1C1E331B78002B00D09BE07B681A1D7B683C1C1E34101C00211A1C40230DF0F6F8031C23703B1C1E331B78002B00D088E0564B1B687E22111C3D
:401CC000FF313A1C0C32081C111C98477DE07B681A1D7B683C1C1E34101C00211A1C40230DF0D8F8031C23703B1C1E331B78002B6BD13B1C1F331A784749131C5B009B18DD
:401D00005B00CB185B885A1E4449131C9B009B189B00CB185A6880235B0113401FD07B685B68181CFFF706FC031C1A1C012313409BB2002B09D0374B1B68BC2251003A1C06
:401D40000C32081C111C984709E0324B1B687A22111CFF313A1C0C32081C111C98473B1C1F331A782C49131C5B009B185B00CB185B885A1E2949131C9B009B189B00CB185C
:401D80005A6880239B0113401FD07B685B68181CFFF7D0FB031C1A1C022313409BB2002B09D01C4B1B68BD2251003A1C0C32081C111C984709E0174B1B687C22111CFF3180
:401DC0003A1C0C32081C111C9847154B1B78DBB201229343DAB2124B1A703B1C1D3301221A703B1C1F331A783B1C1F3301321A703B1C1F331B78032B05D83B1C1D331B78BD
:401E0000002B00D1AEE63B1C1E331B78181CBD4609B090BD3011002048410100A03C01009725002090B589B000AF3C1C0C3420807B603B1C0B3319703B1C0A331A70314BFE
:401E40001B78022B05D03B1C1E33832252001A8050E03B1C0B331A782B49131C5B009B185B00CB189B885A1E2849131C9B009B189B00CB1808339B68181CFFF75BFB031C6A
:401E80001A1C022313409BB2002B05D13B1C1E33822252001A802DE03B1C0B331A781A49131C5B009B185B00CB185A883B1C10331A813B1C10337A681A603B1C0A331B78A8
:401EC0009AB23B1C10339A803C1C1E343B1C0C333A1C10321868111C0CF02EFB031C23803B1C1E331B88002B04D13B1C10331A89074B1A803B1C1E331B88181CBD4609B0C7
:401F000090BDC0468E25002048410100A03C01003411002080B586B000AF78603B1C163300221A702D4B1B68002B54D02C4B1B88002B50D03B1C173300221A7041E03B1CFD
:401F400017331A782749131C5B009B185B00CB185A88234B1B889A422CD13A1C0C327B68111C1A1C0223081C111C1A1C01F0D9F93B1C0C333A1C173212789A703B1C0C3326
:401F800000225A60184B1B78DBB201229343DAB2154B1A70124B00221A80104B1B68BE2251003A1C0C32081C111C98473B1C163301221A703B1C17331A783B1C1733013213
:401FC0001A703B1C17331B78032B04D83B1C16331B78002BB3D0BD4606B080BD3011002034110020484101009725002080B500AF064B1B78002B04D100F00AF8034B0122EB
:402000001A7000F037F9BD4680BDC0463811002090B585B000AF0F20032100F0CBFE774B0F20191C00F0A0FE754B01221A60754B744A1168744A1268002A01DA734A00E030
:40204000734A0A431A60734B734A1A60734B744A1A60744B00221A60734B744A1A60744B724A1A60734B734A1268802149020A431A60714B704A1268802149020A431A6060
:402080006E4B00221A606E4B00221A606D4B11221A606D4B1B687B607A686C4B13407B607B688022920513437B607B68012293437B60654B7A681A600023FB6096E0644B81
:4020C000FA689200D258DC239B0113407B60614AFB68D3181B787A6813437B60FB68002B2AD1FB689B005C4A9B187A681A60584BFA689200D258012313400AD04F4B4F4AD9
:402100001168FA680120041C9440221C92B20A431A604F4BFA689200D258022313402BD0474B474A1168FA680120041C9440221C92B20A431A601FE0484B7A688021C905FC
:402140000A431A60424BFA689200D2580123134005D03C4B3B4A126820210A431A603C4BFA689200D2580223134005D0354B354A126840210A431A60354BFA689200D258E2
:4021800080239B00134003D080235B00BB6002E080235B01BB602E4BFA689200D25880235B00134005D12E4BFA6852000021D15209E0BB68002B00DA01335B1099B2284B09
:4021C000FA685200D152BB68264A5343264A9B18181C264901F008F8031C9BB219B2244BFA689200D150FB680133FB60FB68012B00D864E7BD4605B090BDC046A5230000F6
:4022000020003A4000003A4080033A40702010137020001304003A40C4000A8018003A400000FF071C003A4010003A400200020014003A4000033A4040033A4028023A4043
:4022400038023A4018023A4030003A40FFFFFFDF644101006C41010080003A4080023A40A025002010270000B80B0000701700009825002080B500AF0A4B1B68002B0EDB33
:40228000C046094B1B68002BFBDB064B054A1268802109060A431A600A2000F00DFEBD4680BDC04600003A4008023A4080B500AF024B01221A60BD4680BDC04624003A4094
:4022C00080B584B000AF78600023FB607A680323134011D0184B1A6801231340FB60FB68002B03D17A6802231340F3D1FB68002B02D0114B01221A607A680C23134015D05B
:402300000D4B1A6810231340FA681343FB60FA681023134003D17A6808231340F0D1FA681023134002D0044B10221A60FB68181CBD4604B080BDC04610023A4080B584B012
:4023400000AF78607B68012B02D9002000F086FD7B68002B08D17B689B00094A9B181B681B041B0CFB6004E0064B1B681B041B0CFB60FB689BB21BB2181CBD4604B080BDCC
:4023800080013A4090023A4080B500AF044B044A1268802109060A431A60BD4680BDC04680023A4080B582B000AF044B1B687B60024B7A681A60BD4602B080BD10023A4078
:4023C00080B584B000AF021CFB1D1A700E4B1B68DAB23B1C0F3340218A431A70FB1D1B789B01DAB240231340D9B23B1C0F333A1C0F3212780A431A70034B3A1C0F32127838
:402400001A60BD4604B080BD0002044080B584B000AF021CFB1D1A700E4B1B68DAB23B1C0F3340218A431A70FB1D1B789B01DAB240231340D9B23B1C0F333A1C0F32127889
:402440000A431A70034B3A1C0F3212781A60BD4604B080BD0003044080B584B000AF021CFB1D1A700D4B1B68D9B23B1C0F337F220A401A70FB1D1B78DB01D9B23B1C0F336A
:402480003A1C0F3212780A431A70044B3A1C0F3212781A60BD4604B080BDC0460003044080B582B000AF094B1B68DAB2FB1D7F218A431A70054BFA1D12781A60FB1D1B785B
:4024C000DB09DBB2181CBD4602B080BD1002044080B500AF00F04EF8BD4680BD80B500AF054B054A1268802109060A431A6000F017F8BD4680BDC0460000244080B500AF94
:40250000064B1B78002B04D1FFF7E2FF034B01221A70FFF7E3FFBD4680BDC0463C11002080B500AFBD4680BD80B582B000AF7860C046064B1A681F231340082BF9D0044B8F
:402540007A681A60BD4602B080BDC046080224404002244080B582B000AF054B1A681F2313407B607B68181CBD4602B080BDC0460802244080B500AF184B194A1A60194B96
:4025800000221A60184B01221A60184B184A1A60184B07221A60184B00221A60174B01221A60174B124A1A60164B00221A60164B04221A60154B00221A60154B00221A600E
:4025C000144B00221A60144B00221A60134B00221A60134B00221A60BD4680BD000024400F0000024000244048002440000324400700008004032440100324404400244074
:40260000000224400402244050002440880E2440C80E2440480F2440080F2440C80F2440880F244080B588B000AF7860224B1B889BB29BB21BB2BB61204B1B889BB29BB247
:402640001BB27B617B687A695A43BB699B02D3183B613A691A4B9A420EDD3B69C822D203D31A00D50F331B11DB00181C552100F0BBFD031CFB610EE03B69A02292039B1860
:40268000002B00DA0F331B11DB00181C372100F0ABFD031CFB613A69FB69D318802212029B18FB60FB68002B01DA064A9B181B14181CBD4608B080BD66F1FF0F64F1FF0FE8
:4026C000FFFF0E00FFFF000080B500AF00F050F8054B181C00F00EF8032000F017F800F03DF8BD4680BDC046ED26000080B500AFBD4680BD80B582B000AF7860024B7A6859
:402700009A64BD4602B080BD0000002090B585B000AF021CFB1D1A701623FB603C1C0B3400F09FF8031C23700A4B0A4A11680A4A1140FA1D1078FA68041C9440221C0A43F5
:402740001A603B1C0B331B78181C00F08EF8BD4605B090BD00E400E0FFFF3FFF80B500AF024B04221A60BD4680BDC04600E100E080B500AF024B04221A60BD4680BDC04619
:4027800080E100E080B500AF024B04221A60BD4680BDC04680E200E080B582B000AF786000F04AF87B68181C00F008F8032000F011F800F037F8BD4602B080BD80B582B0C4
:4027C00000AF7860024B7A681A66BD4602B080BD0000002090B585B000AF021CFB1D1A700623FB603C1C0B3400F03BF8031C23700B4B0B4A1268C021101C8843011CFA1D87
:402800001078FA68041C9440221C0A431A603B1C0B331B78181C00F028F8BD4605B090BD08E400E080B500AF024B802252001A60BD4680BD00E100E080B500AF024B802205
:4028400052001A60BD4680BD80E100E0000000000230800803D00138FDD1C046C046C0467047EFF3108072B6704780F31088704780B500AF0B4B0B4A126801218A431A6029
:40288000094B094A126830218A4310210A431A60054B054A126807218A4301210A431A60BD4680BD00F02E4000FF2E4080B500AF0E4B0E4A126802218A431A600C4B0C4AB9
:4028C000126807218A4302210A431A60084B084A126830218A4320210A431A60034B034A126801210A431A60BD4680BD00F02E4000FF2E4090B585B000AF78603C1C0F3495
:40290000FFF7AFFF031C2370094B796807220A40D104074A1068074A02400A431A603B1C0F331B78181CFFF7A0FFBD4605B090BD00010B40FFFFC7FF80B584B000AF7860A7
:402940000023FB60154B154A126801210A431A60134B144A1A60144B134A1268802109020A431A607B68002B13D01023FB600DE0012000F0A1FA00F019F8031C002B02D0A3
:402980000023FB6005E07B68013B7B607B68002BEED1FB68181CBD4604B080BD60F02E4078002E400220000010002E4080B500AF034B1A6801231340181CBD4680BDC04679
:4029C0000C002E4080B500AFFFF752FF044B044A1268802109060A431A60BD4680BDC04600F02E4080B584B000AF78600C4B1A6801231340FB607B68002B02D0012B03D086
:402A000005E0FFF735FF06E0FFF750FF03E0002000F024FAC046FB68181CBD4604B080BD00F02E4090B583B000AFFC1DFFF719FF031C2370074B074A1268C02109020A4306
:402A40001A60FB1D1B78181CFFF70FFFBD4603B090BDC04600010B4080B500AF054B1A68C0231B02134001D0012300E00023181CBD4680BD00010B4090B583B000AFFC1DA3
:402A8000FFF7EFFE031C23700C4B0C4A11680C4A0A408021C9010A431A60084B074A1168074A0A40802109020A431A60FB1D1B78181CFFF7DAFEBD4603B090BD00010B4062
:402AC000FF3FFFFF80B582B000AF78607B68022B02D9002000F0C2F9054B1A687B68DB000133DA4001231340181CBD4602B080BD10020B4080B584B000AF786039607B68B2
:402B0000022B02D9002000F0A9F97B68181CFFF7D9FF031C002B18D10D4B1B687A68D2000321081C9040021CD2431340FB603A6803231A407B68DB00111C99400B1CFA68CC
:402B40001343FB60024BFA681A60BD4604B080BD0C020B4080B584B000AF786039607B68002B02D07B68012B01D1012300E00023002B02D1002000F071F97B68181CFFF738
:402B8000A1FF031C002B18D10D4B1B687A68D20002320121081C9040021CD2431340FB607B68DB0002333A68111C99400B1CFA681343FB60024BFA681A60BD4604B080BD96
:402BC0000C020B4080B582B000AF7860154B154A11687A680A431A607A680123134006D0C0460020FFF76EFF031C002BF9D07A6880235B00134006D0C0460120FFF762FF5B
:402C0000031C002BF9D07A6880235B02134006D0C0460220FFF756FF031C002BF9D0BD4602B080BD10020B4080B584B000AF786039607B68002B02D07B68012B01D1012333
:402C400000E00023002B02D1002000F007F9174B1B689B0F9B0701D1C92300E05D23181C00F02AF9124B1B68FB607B681B01114A111C99400B1CDA43FB681340FB600C4B66
:402C80007A68120139689140FA680A431A60074B1B689B0F9B0701D1432300E01F23181C00F00AF9BD4604B080BDC0460C020B4008020B40FFFF000080B500AF034B1A6888
:402CC000034B1340181CBD4680BDC04610020B400404040090B585B000AF78603C1C0B34FFF7BFFD031C2370FFF7B6FE031C002B04D00123FB60FFF7BFFE01E00023FB60FB
:402D00007A680C4B13407B600B4B0B4A11680B4A11407A680A431A60FB68012B01D1FFF781FE3B1C0B331B78181CFFF79EFDBD4605B090BD0404040010020B40FBFBFBFF98
:402D400080B582B000AF7860054B054A11687868044A02400A431A60BD4602B080BDC04610020B400808080080B584B000AF021C3960FB1D1A7080239B05FB60FB1D1B78EF
:402D80001F2B02D9002000F069F8FB1D1B7810339B00FA68D3181B68BB60FB1D1B7810339B00FA68D3183A681A60BB68181CBD4604B080BD90B587B000AF0A1CFB1D011C46
:402DC0001970BB1D1A70BB1D1B78032B02D9002000F044F8FB1D1B781F2B02D9002000F03DF8FB1D1A7803231340DB0006337B613C1C1334FFF735FD031C2370FB1D1B78DC
:402E00009B08DBB29B0014495B181B68FB607B690322111C99400B1CDA43FB681340FB60BB1D1A787B69111C99400B1CFA681343FB60FB1D1B789B08DBB29B00064A9B18AE
:402E4000FA681A603B1C13331B78181CFFF70DFDBD4607B090BDC04600E400E080B582B000AF021CFB1D1A7001BEBD4602B080BD80B582B000AF786008E00C4B1B68181CD6
:402E8000FFF7E6FC7B680A4A9B187B607A6880231B029A42F1D8074B1B687A685343181CFFF7D6FCBD4602B080BDC046980100200080FFFF9001002080B582B000AF021CD1
:402EC000BB1D1A80BB1D1B88044A12785343181CFFF7BEFCBD4602B080BDC0469401002090B583B000AFFC1DFFF7BBFC031C2370074B074A126804218A431A6030BFFB1DB7
:402F00001B78181CFFF7B1FCBD4603B090BDC04610ED00E090B583B000AFFC1DFFF7A1FC031C2370114B114A1268520052081A600F4B104A128892B21A600F4B0E4A12682D
:402F400004210A431A600D4B1B683B600220FFF7D1FC30BF094B3A681A60FB1D1B78181CFFF783FCBD4603B090BDC04600000B400C000B4052F1FF0F10ED00E000010B4032
:402F800090B583B000AFFC1DFFF76BFC031C2370114B114A1268802109060A431A600F4B0F4A128892B21A600E4B0E4A126804210A431A600C4B0C4A1268FF218A43F121D2
:402FC0000A431A6030BFFB1D1B78181CFFF74DFCBD4603B090BDC04600000B400C000B4050F1FF0F10ED00E02C000B4080B582B000AF78600A1CBB1C1A80BB1C1A887B68CE
:403000001A60BD4602B080BD80B582B000AF78600A1CBB1C1A80BB1C1A887B681A60BD4602B080BD80B582B000AF021CBB1D1A80BB1D1B88181CFFF73FFFBD4602B080BD5C
:4030400080B500AF00F068F8BD4680BD80B500AF00F06CF8BD4680BD80B500AF00F066F8044B181C00F024F8032000F02DF8BD4680BDC0464131000080B500AF024B181C4E
:4030800000F004F8BD4680BD4131000080B582B000AF786000F04AF87B68181C00F008F8032000F011F800F037F8BD4602B080BD80B582B000AF7860024B7A681A67BD467D
:4030C00002B080BD0000002090B585B000AF021CFB1D1A700623FB603C1C0B34FFF7C1FB031C23700B4B0B4A1268C021101C8843011CFA1D1078FA68041C9440221C0A43BF
:403100001A603B1C0B331B78181CFFF7AEFBBD4605B090BD0CE400E080B500AF024B802252011A60BD4680BD00E100E080B500AF024B802252011A60BD4680BD80E100E083
:4031400080B500AF10F02CFABD4680BD002934D00123002210B488422CD301242407A14204D2814202D209011B01F8E7E400A14204D2814202D249005B00F8E7884201D30B
:40318000401A1A434C08A04202D3001B5C0822438C08A04202D3001B9C082243CC08A04202D3001BDC082243002803D01B0901D00909E3E7101C10BC7047002801D0002077
:4031C000C04307B4024802A14018029003BDC046D90000000029F0D003B5FFF7B9FF0EBC4243891A1847C046002941D010B4041C4C40A44601230022002900D5494200286A
:4032000000D5404288422CD301242407A14204D2814202D209011B01F8E7E400A14204D2814202D249005B00F8E7884201D3401A1A434C08A04202D3001B5C0822438C083A
:40324000A04202D3001B9C082243CC08A04202D3001BDC082243002803D01B0901D00909E3E7101C6446002C00D5404210BC7047002806D003DB0020C043400801E0802014
:40328000000607B4024802A14018029003BDC046190000000029EBD003B5FFF7A7FF0EBC4243891A1847C0467047C046014B18687047C0462804002070B50E4B0E4D002479
:4032C000ED1AAD101E1CAC4204D0A300F35898470134F8E710F09AFF084B094D0024ED1AAD101E1CAC4204D0A300F35898470134F8E770BD184201001842010018420100E8
:403300002042010030B50023934208D0C55C0133CC18013C2478A542F6D0281B00E0002030BD10B50023934203D0CC5CC4540133F9E710BD031C8218934202D019700133B8
:40334000FAE770470FB40B4B13B51C68002C05D0A369002B02D1201C00F008FD05ABA168201C049A019300F09BF816BC08BC04B01847C0462804002070B5051C0E1C0028D7
:4033800004D08269002A01D100F0F0FCAC68A3891A0702D52369002B19D1281C211C00F069FB002813D00120404245E03178002B1BDAA269934211DA281C221C00F002FBF2
:4033C000013043425841C0B20028ECD10136A3683278013BA360002AE8D10CE023681970236819780A2903D1E6E722681170236801332360EAE7002B17DAA269934208DB2C
:4034000022680A231370236819780A2911D1281C01E0281C0A21221C00F0D4FA013043425841C0B2002806D0BDE722680A2313702368013323600A2070BD000008B5034B50
:40344000011C1868FFF798FF08BDC04628040020936810B5013B9360002B05DA9469A34208DBCBB20A2B05D01368581C10601970C8B201E000F0A6FA10BDF8B5061C0F1C2C
:40348000141CD518AC4208D02178301C3A1CFFF7DFFF0134431CF5D100E00020F8BD0000F0B59FB0061C0F1C03920593002804D08169002901D100F059FC754B9F4201D104
:4034C000776808E0734B9F4201D1B76803E0724B9F4200D1F768BB891A070AD53B69002B07D006AD00236B6120236B763023AB763BE0301C391C00F0BDFA0028F1D0012033
:403500004042C2E0059A111D12680591002A76DB0992013423782E2B00D181E021785F48032200F0E3FC002807D05C492A68431A402098401043286001342178631C584852
:4035400006220393297600F0D1FC002800D18AE0544B002B7ED1059B072207339343083305936A69049953186B61039C2378002B04D10399611A029110D003E0252BF8D0A3
:403580000134F3E7301C391C039A029BFFF775FF013075D06A69029953186B612378002B6ED0012252426A606A4600235B3201342B60EB60AB601370AB6521783A480522CC
:4035C00000F094FC002808D0374A0134831A012098402B6818432860EFE72B68D90603D56A4620215B3211701A0703D56A462B215B32117022782A2A84D0099B05E0524208
:40360000EA60022213432B6083E72278303A092A04D80A214B4301349B18F6E7099379E763782A2B09D1059B02341A1D1B680592002B0DDA01235B420AE001340023227864
:40364000303A092A04D80A214B4301349B18F6E7079363E705AB0093301C291C3A1C134B00E000BF07E005AB0093301C291C3A1C0E4B00F091F804900499013100D070E7DB
:40368000BB895A0600D53AE70B981FB0F0BDC046AC410100CC410100EC4101007E4101008241010000000000784101007B340000F7B5151C01930A698B68061C0C1C93423E
:4036C00000DA131C221C2B6043321278002A01D001332B602068800602D52B6802332B60216806270F401FD0231C43331B785A1E9341226892061FD5E11840313020C87077
:40370000211C5A1C45310978A21840320233D17012E0221C301C019919320123089FB847013011D0009F01370097E0682968009F431A9F42EDDBD7E7221C301C01994332BD
:40374000089FB847013002D10120404223E0206806212B68E26801400025042903D1D51AEB43DB171D40A26823699A4201DDD31AED1800270097009FAF420BDA221C301C9B
:4037800001991A320123089FB8470130DCD0009F0137EFE70020FEBDF0B50D1C8BB0433506920590079304950B7E0C1C109A6E2B00D1A7E011D8632B22D009D8002B00D181
:4037C000B0E0582B00D0C0E045310B707B4D4EE0642B1CD0692B1AD0B7E0732B00D1A5E009D86F2B29D0702B00D0AEE00E68202333430B6036E0752B1FD0782B32D0A4E006
:4038000013680D1C191D423511601B689FE0216813680E0603D5191D11601E6805E04806F9D5191D116000215E5E644B002E3BDA049D2D2276422A7036E0216813680E06C0
:4038400003D5191D11601E6804E04806F9D5191D1E881160594B227E039308276F2A1ED00A271CE0231C78214533554D197011682368081D039510601E0601D50E6802E03B
:403880005806FBD50E88D90702D52022134323601027002E03D1226820239A432260231C002243331A7001E003930A276368A360002B03DB2568042295432560002E02D11C
:4038C000049D002B0ED0049D301C391CFFF782FC0398013D435C301C2B70391CFFF736FC061EF1D1082F09D12168C90706D5626823699A4202DC013D30232B70049E731BF5
:4039000023612AE0086813684969050604D5181D10601B68196005E04606F8D5181D10601B68198000232361049D16E01368191D11601D68281C00F0DFFB636820619842FF
:4039400000D923612069606004E0251C42352B7001232361049E00233370079E05980096211C09AA069BFFF7A3FE013002D10120404221E02A1C059806992369079DA84711
:403980000130F4D02668B60705D4099BE068984212DA181C10E00025E0680999431A9D42F3DA221C0598069919320123079EB0470130DCD00135EFE70BB0F0BD894101005F
:4039C0009A41010070B5051C0E1C141C002804D08269002A01D100F0C9F9234B9C4201D16C6808E0214B9C4201D1AC6803E0204B9C4200D1EC68A369A360A3891A070AD520
:403A00002369002B07D022682369F6B2D01A626990420FDB08E0281C211C00F02BF80028F1D0012040421DE0281C211C00F01EF90028F6D1A3680130013BA36023685A1CD1
:403A400022601E706369984205D0A389301CDA0708D50A2E06D1281C211C00F007F90028DFD1301C70BDC046AC410100CC410100EC410100344B70B51D68061C0C1C002DE4
:403A800005D0A969002902D1281C00F06FF92F4B9C4201D16C6808E02D4B9C4201D1AC6803E02C4B9C4200D1EC68A28993B2190721D4D90605D40923336040231A43A28129
:403AC0003FE05A0713D5616B002908D0231C4433994202D0301C00F015FA00236363A38924229343A3810023636023692360A38908221343A381216900290BD1A389A0224C
:403B000092001A4080239B009A4203D0301C211C00F09CF9A38901221A4005D061690022A2604A42A26103E0990700D46269A26022690020824206D1190604D54022134389
:403B4000A3810120404270BD28040020AC410100CC410100EC410100F7B58B89051C0C1C19075ED46268002A02DC276C002F1ADDE76A002F17D000222E682A608022520157
:403B80001A4001D0626D15E0281C216A0123B847021C411C0ED12B68002B0BD01D2B01D0162B02D12E6000205EE0A38940210B43A38159E0A3895F0706D56168636B521A70
:403BC000002B01D0276CD21B281C216A0023E76AB847A289411C06D12B68002B03D01D2B01D0162B19D10023636023692360D70405D5411C02D12A68002A00D16065616BDB
:403C00002E600029CFD0231C4433994202D0281C00F078F90020606326E040231A43A28122E02669002EBED027680022BF1B01972660990700D16269A260019F002FB2DDC8
:403C4000281C216A321C019BA76AB847002806DCA389402213430120A381404204E0019F36183F1A0197E8E7FEBD00000A6938B5051C0C1C002A01D100201CE0002804D0BC
:403C80008369002B01D100F071F80B4B9C4201D16C6808E0094B9C4201D1AC6803E0084B9C4200D1EC680C22A35E002BE4D0281C211CFFF751FF38BDAC410100CC410100E9
:403CC000EC410100F8B5041C071C4834002C12D0A5686668013E0CD4AB89012B07D90E22AB5E013303D0381C291CFFF7BFFF6835F0E72468EAE7F8BD002310B5041C036064
:403D00004360836081814366C281036143618361191C08225C30FFF70DFB054B24626362044BA362044BE362044B236310BDC0466140000089400000C1400000ED40000077
:403D400070B54B1E68255D430E1C291C743100F021F9041E08D00021016046602A1C0C30A0606832FFF7E6FA201C70BD836913B5041C002B27D18364C3640365124B134AC6
:403D80001B688262984201D101238361201C00F01FF86060201C00F01BF8A060201C00F017F80421E06000226068FFF7A5FFA06809210122FFF7A0FFE06812210222FFF703
:403DC0009BFF0123A36113BD74410100C53C0000F8B51D4B071C1E68B269002A02D1301CFFF7C4FF4836B4687368013B05D40C22A55E002D10D06834F7E73368002B06D1C0
:403E0000381C0421FFF79CFF3060002801D03668E9E70C233B6016E001235B42E381201C0123A38165662560A560656025616561A5615C30291C0822FFF77CFA6563A56375
:403E4000A564E564201CF8BD74410100F0B58B8991B0051C0C1C9A0725D40E23C95E002906DAA78980231F400FD0002740260EE001AA00F06FF90028F3DB029BF0273F0291
:403E8000184A1F40BF187B425F418026F600281C311C00F07FF800280CD1A3899A051FD402221343A381231C4733236023610123636115E00C4B8022AB62A3892060134373
:403EC000A38120616661002F0AD00E23E15E281C00F052F9002803D0A38901221343A38111B0F0BD00E0FFFFC53C0000C9B28218904204D003788B4202D00130F8E7002048
:403F00007047000030B5002940D004390B68002B00DAC9181E4A1368141C002B02D14B60116033E099420FD208680A189A4205D113685268C01808604A6000E04B602160AB
:403F400024E08A4203D8131C5A68002AF9D11D685C198C420BD10968691858181960904214D114685268091919605A600EE08C4202D90C23036009E008680C18944203D1A0
:403F800014685268001908604A60596030BDC0468025002070B50323CD1C9D430835061C0C2D01D20C2501E0002D3FDB8D423DD3204B1C681A1C211C002913D00868431B3C
:403FC0000DD40B2B02D90B60CC181EE08C4202D1636813601AE0486860600C1C16E00C1C4968E9E7144C2068002803D1301C00F025F82060301C291C00F020F8431C15D0D8
:40400000C41C03239C4384420AD12560201C0B300722231D9043C31A0BD05A42E25008E0211A301C00F00AF80130EED10C233360002070BD802500207C25002038B5074C16
:404040000023051C081C2360FCF712FF431C03D12368002B00D02B6038BDC046A425002038B50C1C0E25495F00F0ACF8002803DB626D1318636503E0A289024B1340A3810B
:4040800038BDC046FFEFFFFFF8B51E1C8B89051C0C1C171CDA0505D50E23C95E0022022300F07CF8A289054B281C1340A3810E22A15E331C3A1C00F027F8F8BDFFEFFFFF2C
:4040C00038B50C1C0E25495F00F068F8A389421C03D1054A1340A38104E0802252011343A381606538BDC046FFEFFFFF08B50E23C95E00F01DF808BD0023C25C0133002ADF
:40410000FBD1581E7047000038B5084C051C00202060081C111C1A1CFCF70CFD431C03D12368002B00D02B6038BDC046A425002038B5074C0023051C081C236000F056F870
:40414000431C03D12368002B00D02B6038BDC046A425002038B5074C0023051C081C111C236000F04BF8431C03D12368002B00D02B6038BDA425002038B5074C0023051CE6
:40418000081C236000F042F8431C03D12368002B00D02B6038BDC046A425002038B5084C051C00202060081C111C1A1C00F036F8431C03D12368002B00D02B6038BDC04620
:4041C000A425002038B5084C051C00202060081C111C1A1C00F02AF8431C03D12368002B00D02B6038BDC046A4250020024B5822012040421A607047A4250020024B5822C8
:40420000012040421A607047A4250020024B582200201A607047C046A4250020024B5822012040421A607047A4250020024B5822012040421A607047A425002010B501F0FC
:404240006BFA10BD10B501F07DFA10BD10B501F081FA10BD10B500F0DBF810BD10B50749044609780220002907D1204601F0A2FA002802D1204608F0C7FF10BDAE0200200D
:40428000F7B51F4E0024307815460F46002804D00824B76075802046FEBD002F00D1012401F050FA0098002805D0172D03D301204002854201D90124EBE7002CE9D12946B5
:4042C000384600F023F80400E3D1706800F01CF80400DED1706800F015F80400D9D101F04BFA0400D5D1009806F04AFB0400D0D106F05CFB0400CCD101203070C9E70000B4
:404300009C0100200020704700207047F8B50D4607460026FEF7B0FEFEF798FE00F02EFA040065D100F0B8FB040061D13449084600F0D4FD0404240C5AD1A80705D0A80724
:40434000800F0421081A401985B2172D02D968002E3886B22B48301881B2384601F0C0F8040045D1284F03460246002825D127495E008E5B294610318E4207D99000C019DD
:4043800041800221521C4170D2B215E08E420BD10020787690001D49C0194680891FC95C891C4170012012E0052A06D1164806461436418302207071012014495E008E5B76
:4043C0009100C9194E80114EB61FF65C4E705B1C521CDBB2D2B2062BC7D30B4800F06CF8002C05D100F084F807490120891E087000F0D6F9002C01D0FF20F8BD0020F8BD6D
:4044000025440000940C0000AA0100208642010010B503480078012801D100F0F1FE10BDA80100207047000010B5011F0878034A8000105800F0F4FF10BD00004411002071
:4044400010B5044604498000085800F057FF002801D00470001D10BD4411002038B5044692B2C9B2684600F06FFF024AA1000098505038BD4411002070B50B490646002078
:404480004C6805466178002908D06188B14202D32078FFF7D5FF002804D1241D6D1CEDB2082DEFD370BD0000CC01002010B5002801D0FFF7B9FF10BD70B50B4E0446002573
:4044C00070606178002905D062882078121D0023FFF7C4FF6D1C241DEDB2082DF1D3024800F0F0FFB06070BDCC010020002070471CB5002469460C70142001902346054A5F
:4045000005480CF039FC04480068401C00D1FF2420461CBD6D450000D80100203EB5124A0146FF2000230124126800290DD0012914D0042908D104206946009308814B81C3
:4045400010460CF014FC80B23EBD6846009304814381694610460CF005FCF4E768460093048143816946EBE7D801002070B54589046841680089030000F026F80624040869
:40458000081D2124002005F0D1F91BE0022908D0C8B22A4621460AF0DBFE2046FFF786FF10E002202A4621460AF0D2FE2946204600F018F806E000200CF0D2F802E0204613
:4045C0000CF060FC002070BD30B47446641E2578641CAB4200D21D46635D5B00E31830BC18470000014B0022DB681847DC01002070B5448905680089022803D0032809D060
:40460000FF2070BD2246094C0023A46829460120A04708E0FFF716FE241DA2B200232946022006F090F8002070BD0000DC010020704700000248002141600180418070470C
:40464000DC01002070B50C46002186B016460391012802D0022859D116E003A9012006F0CAF801281BD1039D324621462846FEF758FE0095287801900220694608814E8179
:404680006846FFF7B5FF41E0214D002B686809D0049004A9022006F0AEF801281DD0022006B070BD002812D0298840182146FEF738FE28880024801980B228806988091D22
:4046C000884206D12C801348FFF792FF03E00320E6E788421AD96C6018E004986860E278A378110219430B4A698000231060E3565360032313815181A1788170E178C17012
:404700006178417021780170042028800020C7E7DC010020641100203EB515460C46022803D004280CD000203EBD0091019002206946088107484A8100680CF018FB07E005
:404740000AF006FE044B0022DB6829462046984701203EBDD8010020DC010020014AD16090607047DC010020034801688068081A0A214843000970477011002010B5FEF712
:404780006BFC542204490548FEF7CBFD03490120C870002010BD000096420100C013002010B5FEF74DFC10BD70B5134C2368002B08D0207B1149C20705D0400840002073D7
:4047C0008868A08070BD88680B4AA18880B29268814203D90A4D691A091802E0814202D2411A5118A160A080A0689842EAD300F015F80CF0D9FA70BD70110020C0102E4073
:40480000FFFF000010B508461946FFF7A7FF10BD704710B5FFF780FF10BD000003480021016041608160C160704700007011002010B502000DD0FFF7F1FF074C0321207B7D
:404840000843207310010A21FEF7C4FC2060002010BDFF2010BD00007011002000B504480A21806848430209FFF7D8FF104600BD701100200248007B8007C00F7047000072
:404880007011002070B558490868002802DA574B01221A70022290430860554800695249C00B4031096A08426CD0012000F0C2FA4F4850497C30FEF7A7FB4B480E216C30FB
:4048C000FEF7A2FB4A4820218430FEF79DFB484814219C30FEF798FB4548FF21C131A430FEF792FB4248FF212F31B030FEF78CFB3F484149BC30FEF787FB3D483F49AC3041
:40490000FEF782FB3D493A48491CB430FEF77CFB37483B49B830FEF777FB35483949CC30FEF772FB324838490830FEF76DFB30483649A830FEF768FB2D4835498830FEF742
:4049400063FB2B4833498C30FEF75EFB28481921C9029030FEF758FB2F4D287E697E0C020443A87FE97F2D4A090201432C48914201D1072C08D035229201914208D1042CC6
:4049800005D005E0FF2070BD0146042400E0014617486C30FEF738FB154821467430FEF733FBA87EE97E0902014301204003814201D0002900D11B490D487830FEF724FB6A
:4049C0002A7F687F010218481143814204D01748814201D0052901D113490A3904488030FEF712FB002070BD00F02E40EC01002000002E4055650000320300002F3F0000C6
:404A00003102000010520000EC160000FA12000031D000003AE30000C0F0FF0F580B0000580D0000022000000F0F00000505000070B50646581C80B245086D00002408E008
:404A4000304600F07FF81055000A1119A41C4870A4B2AC42F4D3D80705D0D0182038D15CC47FD454C17770BD30B50A4C002100195B1E07E0541864782502545C2C43048065
:404A8000891C89B29942F5DB994201D1515C018030BD000000102E4010B5FF2000F0CAF90F49FF2048700E481021801D41800121417001700A490020C91C4870FFF7E2FE50
:404AC00004000AD100F0DEF807210648FEF78EFA044807211830FEF789FA204610BD0000EC010020CC112E4030B504465B1C1804450C002308E0204600F024F8241D590035
:404B00005B1CA4B250529BB2AB42F4D330BD000070B500210A4D5B1E0AE0541864782602545C344346193480001D891C80B289B29942F2DB994202D1515C4019018070BD35
:404B400000102E40014940180088704700102E40014A80180180704700102E4010B50B490020487000F08EF8002000F089F9002000F076F907210648FEF738FA0448072136
:404B80001830FEF733FA002010BD0000EF010020CC112E4010B506480078012803D102210448FEF731FA02490020C91E087010BDEF01002070F02E4010B50B46062812D091
:404BC00006DC01280CD0032801D1FFF7C7FF10BD0A28FCD00B28FAD105480078107010BDFFF75AFF10BD1146184600F065F910BDF2010020F8B5204DAC6A0127A0071F4ECF
:404C0000002816DA307806280ED1286A384328621B480069F903084381B219481030FEF7F3F9042000F006F9134802212830FEF7DDF9E00711D0062000F0FCF80F49FF204B
:404C4000C91E48707078002802D1686B38436863094801212830FEF7C9F9E0050BD53078042802D1052000F0E5F80348FF2101312830FEF7BBF9F8BD40F02E40EF010020B8
:404C800000002E4010B503212348FEF7BDF90120FEF7C8F920483038406A204C80076178800F890001431C480C38FEF7ADF96078002808D0401E022181401820FEF7EAFAA0
:404CC000C000083800E0B82081B21548FEF79CF91348032109021438FEF796F910481149B830FEF791F9452189010F48FEF78CF90D480321001FFEF787F90C490C48FEF703
:404D000083F90B480B496038FEF77EF9084801218838FEF779F910BD70F02E40F2010020D8102E4090890000041E2E40FF0F000058122E4020900000044800684007400F26
:404D4000022801D0002070470120704700010B4000B5FFF7F1FF002805D009480168C908C900016000BD0748016A490849000162054801690122D2039143016100BD0000DA
:404D800000010B4040F02E4000002E400849087806280BD148780749002803D1486B400840004863C86A01221043C86270470000EF01002040F02E4001480078704700001F
:404DC000EF01002002484078022800D001207047EC01002000B50300FFF7F6FB080D050D0B070507090D012000BD032000BD042000BD022000BDFF2000BD0000074A916824
:404E0000D26889B2064B92B2994204D105498A4201D1012100E000210170704780002E4033D000003FE300000149487070470000EF01002010B50446FEF708F9072C01D993
:404E4000FF2C01D102480470FEF7FAF810BD0000EF0100200149487070470000EC01002010B5064A012805D01921C9021046FEF7CBF810BD1D21C902F8E7000090002E4014
:404E800010B50A4A141D012808D009491046FEF7BBF808492046FEF7B7F810BD04491046891CFEF7B1F80349491DF3E788002E4031D000003AE300000078074AFF2803D0E6
:404EC0004C2804D9553803E01078087070474F380870107070470000EE01002010B50F4A002313600E4A13600E4B18600E4801600E49012008600E490860000290600E4906
:404F00000C4808600D4914300860FF381538506000F0BCF800F0CAF9002010BD10020020F80100202402002028020020140200200402002080120020080200201C020020EA
:404F4000014610B50020002910D0094B1A689C685118A14209D25868196080188A0704D08A07920F891A091D196010BD002010BDF8010020F8B50024164E671E321F3D46F0
:404F80003168136806E01422624310328A58521C1BD0641C9C42F6D36A1C14D02C461422544322460C3288500C214843FFF7C8FF3168002808510AD0316800201034085192
:404FC0007068401C70602846F8BD2546E4E73846F8BD000008020020F3B50026F64381B000281BDB1E490968884217D80299002914D01B4F142204463F1D5443254639687F
:4050000010354859401C09D0FEF720F838682F1F4159C359994203DBFEF712F83046FEBD214608310091465801590C20704308180C220299FEF775F90948761C001D0068FF
:40504000C159B14200D100260549009A091D865008684159491C4151FDF7F2FF0020FEBD04020020002803DB07490968884202D90020C043704704491422091D096850436E
:40508000103008587047000004020020F0B500200D4A451E0346171F50600FE014260146714314680E1DA3510C461668083433511668083435511468401C63503968884240
:4050C000ECD30020F0BD000008020020F3B50026F64381B0002841DB2349096888423DD8029900293AD0204F142204463F1D54432546396810354859401C2FD0FDF7A6FF2C
:405100003868415900292BD0211D009146580C21005971430F46C1190C220298FEF701F911480021001D0068761C00590C34C0190160416081600C48001D00680159B14278
:4051400000D100260849009A091D865008684159491E4151FDF774FF0020FEBD3046FEBDFDF76EFFFAE7000004020020FEB504460D4600201E49089E0860471E0090019008
:405180000290002C11D0486885420ED2002A0CD0002E0AD0642E08D808460C3001681C2068430C18207A002801D03846FEBD0120226020721846FFF7DDFE6060401C13D04C
:4051C0006681A6810A4827610C3067610179A94200D205710021684601810A462846029B00F040F82846FEBD00202072DDE700001002002038B50124009400F039F838BDB5
:40520000FEB50027164EFF433D4600240EE01C20316860430818017A002906D04068FFF721FF002801D0254603E0641C3079A042EDDA681C12D01C2130684D434419FDF754
:4052400005FF69466068FFF741FF0546FDF7F8FE002DD9D1216868468847D5E7FEBD00001C02002038B50024009400F001F838BD1FB500220C49541E0A60002811DB496847
:4052800088420ED808491C220C31096850430818406801A9FFF7A0FE401C02D0002004B010BD2046FBE7000010020020F0B50021114A4D1E174611710C3F0B46BD6016E005
:4052C00008461C2460431668041D355114680646235014680836A3551468361DA353044616680A34335318301468491C255078688142E5D30020F0BD1C02002038B5002108
:405300000091002811DB0F49097888420DDA0D4D04010C3529680859002807D0201D0818694600F05FF9002801D0002038BDFDF78DFE28680F34015D491E0155FDF780FE6C
:40534000009838BD2C020020F7B582B00025ED43029800240E460560002A49D0002E47D02D48D21C02402D48174601780C30006805E022018258002A0FD0641CE4B28C42BD
:40538000F7D3691C3ED02C01211D40180191314600F016F900282BD101E02546F1E71F480C30016820460C300F521C480C30016820460E300E5419480C30016820460F30B4
:4053C0000E543846704300F0ADF814490C310968002808510CD00024009011E00F480C30016801980818009900F017F9002802D0012005B0F0BD0098C019641CE4B2009096
:40540000B442EBD30298054905600C310879401C08710020EDE70000FCFF00002C020020F8B50D4600216A468C461180002839DB23490978884235DA214B04010C33196834
:405440000A59002A2ED020460C300B5A801C0E5C184670438018954224D3854222D2002006E007465F43BF18AF4206D0401CC0B2B042F6D36046002814D0114E271DC81910
:405480000C366A46294600F0F2F800280AD168460088012808D030682946C01900F0BDF8002803D00120F8BD0020F8BDFDF7CEFD30680F34015D491C0155FDF7C1FDF3E70D
:4054C0002C02002003460020002B06D0034A5168906852884018511A198070472C02002070B5002400F0DCF80D4E002132460C3271600EE0200113680546195013680C35B1
:405500005953AD1C13680F3059551368641C1954E4B230788442EDD31171002070BD00002C020020014610B5002000290CD0C91C064B8A08596892005C888A18A24202D8B5
:4055400098685A60401810BD002010BD2C020020F8B5002827DB19490978884223DA174C05010C342168485900281CD028460C30085A009028460E300E5C401C0E542068B1
:405580002F1DC01900F064F800280CD12068002445590EE0094829460C300068C01900F03CF8002801D00120F8BD00982D18641CE4B2B442EED30020F8BD00002C02002040
:4055C00030B50D4604000BD0A800FFF7ABFF6060002805D000202570C0436080002030BD012030BD70B50D46040005D0002D03D00220205E002801DA012070BDFDF726FD83
:405600000221615E60688900405828606088401E6080FDF715FD002070BD70B50D46040007D0002D05D002212078615E401E814201DB012070BDFDF709FD6088401C00B294
:405640006080616880000D50FDF7FAFC002070BD10B5040009D0227800216068FDF76AFE0020C0436080002010BD012010BDF0B500231D46002802D00224045F0AE0012055
:40568000F0BD46689F00F6598E4201D1012503E05B1CDBB29C42F4DA15700020F0BD0000054B11221A70054A1180064A0449116005490860704700002C0200202E020020EE
:4056C000B012002038020020340200200148007870470000400200207CB505460024FEF7B1FDA8796946087000A8062229460130FDF717FE0021684604F076FB0C2804D0FE
:40570000072804D01F2804D004E0022402E0042400E0272420467CBD10B502280BD0032802D0042809D102E000F0E6F805E000F0B5F9FF2801D100F0C5F9FFF73DFBFFF7A2
:4057400049FB10BD10B500F0EDF9FFF735FBFFF741FB10BD70B504460025FEF773FD002C06D0A079012803D8214602F072FB00E00125284670BD000010B503240BF0FCFFF7
:40578000002810D10BF0A0FF00280CD105F082F8002808D100F0A2FB002804D104F07EFD002800D10024024900200870204610BD4002002070B50025044600280ED0A07990
:4057C00001280BD8FEF73EFDA0790028204602D002F09EFF03E002F053FF00E00125284670BD10B5FFF7E8FA012801D1FFF7EAFA10BD38B504460120002C20D061780129E7
:405800001DD800290BD0FF25E535FEF71BFD2846FFF798F9C0B22070072803D00EE0FF25CD35F2E70020694608706846FFF7E6FA69460878012801D108202070002038BD7C
:4058400070B504460120002C1FD06178012902D92278092A19D8002906D0FF25E53520780726092803D003E0FF25CD35F7E72670FEF7E8FC2078082808D00020FFF700FBD4
:4058800021782846FFF764F9002070BD0120FFF7F7FA2670F4E7000070B50D46040001D0002000E00548002802D0012102F0DAF82946204602F03CFC70BD000034140020BA
:4058C00038B5054600200446009022466946284600F09CFF0098002801D00BF02FFFA878214602F0E4F9A878214602F0D3F9641CE4B2052CE9D338BDF8B5624CFFF75CFA72
:40590000012846D160480078002842D002F094FB0028FAD003F072FF0028F6D05B4E7078C00703D000F047FC0128EED0B07E0028E7D170780025002878D0000707D5AC2089
:40594000FFF700F9070B00F061F9384321D14F484178684603F030FE4D4F06462079B9784018C1B2B14271D802F066FB002810D0464C203402F08DF96846008802F0B9F904
:4059800002F062FA43490988884203D10120FFF751FA74E04049012008703C48807B00282BD04034608A002827D0E07E002824D1A1200001FFF7C6F8208A4000B04218D929
:4059C0007878002815D1A12424012046FFF7BAF80221884301462046FFF7BAF8FF24F1342046FFF7AFF80321090201432046FFF7AFF83878002800D03D7002F0BDF901208F
:405A0000FFF712FA244C08E0FDF76AFAFFF7D4F906282CD02078002829D0FFF7CDF9062825D020780128EFD021E0FFE702F004FB002824D0142002F05CF9174C012020702C
:405A400002F09AF90020FFF7EFF909E015E0FDF747FAFFF7B1F9062809D02078002806D0FFF7AAF9062802D020780128EFD0207801288BD1FFF76CF925700020F8BDFF2039
:405A8000F8BD000000140020EC0100201414002046020020580200204102002010B50848FF244078002809D102F0C6FA012805D1FFF770F80720FFF7BDF90024204610BD38
:405AC0001414002038B5FFF777F9012801D0002038BD02F0B1FA00280AD0114C6078C00703D000F068FB012802D0A07E002801D0FF2038BD617800290FD0684603F05CFD3A
:405B0000022806D96846008802F0F3F8012002F039F90320FFF78EF9D9E70020F7E700001414002038B5FFF747F9042819D0052817D006281AD0032842D007280AD1002093
:405B40006946087002460120FFF736F8FFF734F90128FBD138BDFDF7C3F9FFF72DF90128F8D0FFF729F90128F5D138BD02F028F905E0FDF7B5F9FFF71FF9012803D0FFF711
:405B80001BF90128F5D1A12424012046FEF7DAFF01220E4983079B0F0A70022BE5D149880029E2D0104301462046FEF7D1FF2046FEF7C8FF410849002046FEF7C9FF38BD7C
:405BC00002F002F90120FFF735F938BD46020020F8B50646002402F0ADFE0546304602F0C1FE00210346012632468A40174610462F401840002F03D0002801D1224394B2F6
:405C0000491CC9B20529EFD32046F8BD70B500252C460A4E03E0002C01D0002000E030460079002803D02046FFF7D2FF0543641C2406240EEFD0284670BD00003414002088
:405C40001CB50020694648706846FFF7D2FD01AA69460A20FEF7B0FF6946042008561CBD10B50C4601F076F9002809D00179002906D0C1788078224602F008FB002010BDBB
:405C8000022010BD0148007870470000001400204030C07E002800D00120704700B500F001F800BD88214843064940186030417F491CC9B24177052901D300214177C8B258
:405CC000704700001414002013B501F043F904000BD001F09AFC002807D0214601AA0A310620FEF769FF00201CBD02201CBD000010B50C4601F02EF900280AD001F085FCE4
:405D0000002806D0224604490A20FEF755FF002010BD022010BD0000E9130020F3B581B0074601460026029802F0FCFD0446002F01D0002500E0154D002D21D0284601F0FF
:405D40003FF9032C04D13946029802F015FE06463846029901F09EFF032C06D0002C10D00121384601F01AFA03E03146384602F0B7FF284601F05CFE0221284601F072FEF5
:405D8000FEBD3846029901F085FFFEBD3414002070B50446002503F0A5FB002801D00C2070BD2078611C02F06BFBFF2802D01F25284670BD02F0B8FBFF2804D02178621C02
:405DC00001F0DAFEF4E70725F2E710B503F08AFB002801D00C2010BD02F02AFB002010BD70B50D46044610210BF0E8FB1021601806460BF0E3FB334610221946204603F0C5
:405E00009DFB102130460BF0D9FB02202870204604F09CF970BD70B504464078217802028006850FE0781143A67809050002090D0643084601F08EF8002812D0022D10D089
:405E4000032D0ED0002E08D00179092909D0002907D0214600F0A1F870BD0089002104F0AAF820460BF06AFC70BD0020704770B50446002503F036FB002801D00C2070BD57
:405E80002078611C02F0FCFAFF2802D002F03EFA00E01F25284670BD10B504F0FFF900F0F6F8002010BD10B5044600786178E2780843A178114308432179084361790843C0
:405EC00005D003F001FB002803D00C2010BD122010BD204602F01CFC002010BD10B5044803F01CFC02F01CFA00F004F8002010BDD0130020F8B5114D00266E706E736E71BF
:405F00006E76AE76EE766E75AE70EE70AE712F46EE730120B03778723F2078719B20B87100F00AFA0024204601F036FB641C2406240EF8D03E72FE71AE73F8BD1414002002
:405F400070B505460E46084602F0F4FC0446304602F008FD0121A9400A46224001400A4301D0012070BD002070BD10B50446084602F0F8FC0121A140014201D0012010BD77
:405F8000002010BD10B5FEF717FF032804D101F01BFF0120FEF74EFF10BD70B5044600790D4609281CD000281AD020464030817E491C8176204601F03BFDA078FFF76EFE45
:405FC000064602462946204600F00CF8002806D1A0783146FFF760FC28460BF0AFFB70BD0846FAE7F7B5054648780C468006870FC8788978000282B00143684681802846FA
:4060000001F00EFB060007D021462846049A00F091FB304605B0F0BD384600F039FC0746034601AA2946204600F0CAFA68468088231DC0B20090A878FF22049902F032F863
:40604000684680883B46C2B2A878049902F0DCFBDFE770B5002500242846FFF7B9FD060010D03046E040C007C00F07D02146284601F003FE21462846FFF750FE641CE4B2C2
:40608000052CEED36D1C2D062D0EE4D070BD10B502F046F9FFF72EFF0BF0B8FB002010BDF8B5002400F081F80123012800D10124104F00203E4620360425082203E000282E
:4060C00001D0002100E031460979002907D001290BD002290BD0114681402143CCB2401C0006000EEBD07C70F8BD1C43F7E72C43F5E700001414002010B5FFF7D1FF10BDDC
:4061000010B50B4681791943817103D08078114602F03EFB10BD10B582798A43827102D1807802F04DFB10BD70B5FF25D53502242846FEF707FD0C4A9178002901D0022931
:4061400006D1137852789A18282A01D9032402E0032900D101244105490DE00201432846FEF7F6FC70BD00004202002010B500F022F8002807D0012805D0032801D004284E
:4061800001D0002010BD012010BD014610B50020C90701D000F009F810BD014610B50020C90701D000F001F810BD10B52020FEF7C9FC000A10BD10B51820FEF7C3FC410598
:4061C00001D5042010BD4007800F10BD38B5044640060CD5684601F007FE0220FFF78CFF072002F0B9F96846007801F03FF9200613D5FFF7E0FF01280FD1684601F0F4FDFA
:406200006846007800F09AFA072002F0A5F9012001F076FC0220FFF76FFF38BD10B5034A0178117002F0A7F9002010BD4202002010B50446FFF7B9FF002801D00C2010BD60
:40624000A27B01211848002A827801D00A4301E05208520082706279012A0FD0C17849084900C170207901280CD06188208802F0A5FF2080207904280BD00DE0C2780A435C
:40628000C270EFE7E01D02F02BFA0848808C208002E0E01D02F024FA054920798870204602F078F9002010BD14140020C01300204202002038B50478FFF777FF844201D136
:4062C0000C2038BD002C18D0072069460870FFF74DFF012807D10121684600F08DF8012801D0092038BD6846007802F035F9FFF71BFF02F07FF9012010E0FFF737FF012855
:4063000006D1684601F070FD6846007800F04AFA072002F021F902F061F90220FFF7ECFE002038BD10B5034A0178517002F008FA002010BD4202002038B568460BF094F9D6
:40634000002801D01F2038BD01210098C90201804180002505714571857107214173857302F018F9009C202200212046FCF7E2FF25702A460021601CFCF7DCFF204602F00A
:40638000FAF8204602F0DCF900980BF0D7F9042200210248FCF7CEFF002038BD420200200346084800B5834209D8184600F0D2FD002804D00089984201D1012000BD002051
:4063C00000BD0000FF0E0000074A9179491C8906890E917138220A4092014907090E1143084302490840704714140020FF0E0000C006C00E70470000F8B507460E46002452
:406400000D4803E0002C01D0002500E005462979002905D0641C2406240EF3D00020F8BD204601F0B9F82E712046FFF7CDFF28813C700120F8BD00003414002010B503F0A9
:40644000B1F80222002100F003F801F011FF10BD10B5094B40074907000F090F185A595A40185043C0086421FCF7B4FE002800D1012080B210BD0000EA420100F7B53D204D
:40648000405C88B016460C46002829D030786946087200252046FFF7FBFB012800D00125204603A938300191009023460327A17E34332A46206A03F04BF902A80899009011
:4064C0000B46019120463A4603A9243003F018F802466846007A3070204601F049F810460BB0F0BDFFB587B00C4605461078694608723D20005D1746002826D00026204670
:40650000FFF7C6FB012800D00126204603A93830019100902346A17E34333246206A03F017F902A80090291D019120462B1D03A924300A9A02F0E4FF02006846007A3880D9
:4065400002D1204601F014F810460BB0F0BDF7B53C20405C88B015460C4600280CD0287869460872002806D000262046FFF790FB012803D003E01F200BB0F0BD01262046B3
:4065800003A938300191009023460327E17E34333246E06903F0DCF802A8089900900B46019120463A4603A9243002F0DBFF02466846007A2870204600F0E4FF1046DBE7FB
:4065C000FFB505463C20405C87B016460C46002810D0084601F024F801280BD0308869460883002809D000272046FFF751FB012805D005E000200BB0F0BD0220FBE70127FF
:40660000204602A93830019100902346E17E34333A46E06903F09CF806A80090291D019120462B1D02A924300A9A02F09BFF02466846008B30806846008BA870000AE87069
:40664000204600F09FFF1046D5E770B50D460446FFF71EFB01280AD0E87AA97A00020143A07801F0C3FC012808D0002070BD00222421204602F0ECFC242070BD28214C2092
:406680000155204600F09AFB282070BD002801D0002000E003484030C07F012800D0002070470000341400200146002049070ED50021084B03E0002901D0002200E01A46AC
:4066C0001279022A04D0491C0906090EF3D0704701207047341400200146002049070ED50021084B03E0002901D0002200E01A461279022A04D0491C0906090EF3D07047ED
:40670000012070473414002010B5044680346068002803D00BF026F80020606010BD4030417070474030817070474030017070470171704792001018C166704770B53C25FE
:4067400001F0F8F8040004D020460021433001F0EDFB2946204600F0C0FB002C02D0A07801F07AF870BD000010B5002801D0002000E00348002802D0008903F063FC10BDBC
:406780003414002010B5002801D0002000E00448002804D00179072901D100F041F810BD3414002010B501F0C5F8002802D0807801F052F810BD00207047000070B50546DD
:4067C000008A00281ED010491122897A1140C90618D5294640314A8A098A521C4A4392B2D10800D10121540801E0621A94B2A042FBD9FEF76BFF012804D1298AA8782246BE
:4068000001F0E4FC70BD0000C013002000230B60052A04D292001018C26E0A60C366704738B5044600200090A079002814D14020015D052901D00E290ED168460AF024FFF5
:40684000002809D12046009902F0EAFB03481021C28A2046FFF754FC38BD0000C013002010B50B4604460146184602F0B9F8002802D020460AF06CFF10BD13B5044601AAED
:4068800011460620FEF798F96846818861811CBD002800D10220704770470000F8B504462346401D543300909A1EA078911E01F0AAFA25464035A88A298A8000FCF78AFC34
:4068C000401E81B2688A884203D96982A07801F0EAFF20460021433001F028FB8020FEF731F9E88102F05EFEE989891C8AB26179FFF7AEFD01F0BCFC02F054FE2A8A6179C5
:40690000FFF7A6FD074601F0A5FC688A00280BD0FF26F1363046FEF715F90321090201433046FEF715F902E0002001F0AAFFFF206130FEF707F96E8A002E0BD070431049EB
:40694000FCF7A8FC0004000C01D0401C80B20D49488002E00B4800214180288A704381B2A07801F0FBFE2837B9B2204602F02AFCE98AA07801F04AFEA07801F0AEF9F8BDD1
:4069800071020000460200207FB504468034616805460E46183108226846FCF7C2FC31462031082202A8FCF7BCFC102168460AF005FE6068102108300AF000FE60682B460B
:4069C000083024331022694602F0B8FD7FBD10B504460821FFF79FFB10212046FFF79BFB207905281FD006281DD008281AD12189002003F09FFA072020712046FFF748F9C3
:406A0000014620464030012913D00E21017000210176204600F02CFF2046FFF775FE2046FFF7CCFE10BD20890122002103F066FAE1E70521EAE70000FFB581B01F4604461E
:406A40000821FFF768FB10212046FFF764FB2079082803D0092804D0042203E00422012501E009220025204600F0C6FD264600204036307022712046FFF746FE0398002DCB
:406A800002D0012808D00BE001280AD120890022029903F033FA04E02189029803F04AFA012700203076012F04D0204600F0E0FE05B0F0BD02983073204602F0F5FA0546D8
:406AC00005480121C28A2046FFF71AFB002DEFD109202071ECE70000C013002070B50C460546FFF7D5F8012809D108212846FFF712FB0023012221462846FFF79DFF70BD01
:406B000010B5044600F078FD2046FFF7FDFD00214034217010BD70B505461A24FFF7B8F8012809D108212846FFF7F5FA0023012221462846FFF780FF70BD0000F8B5044611
:406B4000002000900E4668460AF09EFD002801D00D20F8BD8420005908212030009D00F0F4F920460421383000F0EFF9002E02D1204600F07FFD2946204602F0E1F90E486E
:406B80000821C28A2046FFF7BBFA204600F0D7FE25464035002808D0204600F023F8002801D0092028700020F8BD08202870204600F03EFFF7E70000C0130020014610B514
:406BC00040310A460978082906D0092907D00A2901D100F091F810BD0B20107010BD00F001F810BD70B50446007925464035052805D0062803D008280FD00C2070BD032272
:406C00000621204602F024FA0D480821C28A2046FFF776FA1120287010E006202873204602F042FA0646AA8A0A20424301212046FFF766FA002E01D109202071002070BDFF
:406C4000C013002038B504460020009068460AF01BFD002801D00D2038BD2046009D00F08BF908202071204600F004FD2946204602F098F900213D2001550F2040210855BF
:406C8000204600F0D5FE002038BD00B5024600F0B3FC10214032117000BD10B50446FEF7F7FF012809D04020005D112805D100231A4606212046FFF7BFFE10BD10B5FFF706
:406CC00086FE10BD38B504460021684600910AF0DBFC00280CD12046009902F0DAF905480821C28A2046FFF70BFA0D204034207038BD0000C013002038B5044600216846D0
:406D000000910AF0C1FC002801D00D2038BD2046009902F0B3F905480821C28A2046FFF7EFF90C2040342070002038BDC013002000787047F8B50025002801D0002400E017
:406D40001A4C002C28D0204600F05FFC002823D0207903281CD005281CD026464036B18AA07801F009FDB078012815D10021204601F053FE274680373868002802D00AF010
:406D8000F1FC3D600020B0702079072805D007E0042000E006202071F8BD2046FFF70EFD0221204600F05EFEF8BD00003414002010B54C22115400F046F810BD10B504461A
:406DC000FF21FFF7A8F909202071A07801F004FD10BD000038B5FF216A461180002801D0002400E0064C002C08D011460620FDF7E3FE684601882046FFF73FFD38BD000094
:406E00003414002010B504468079002809D022214C200155FF212046FFF77DF9204600F012F810BD10B5037902464032002B03D01173092B02D003E0002100E0222111738F
:406E400000F001F810BDFEB504460089002701902781207926464036002817D0012815D002280AD112E002AA6946204601F0A6FD002807D100980AF06BFC204601F0C6FD7F
:406E80000028F0D02046FEF71BFDB776254680352868002802D00AF065FC2F606868002802D00AF05FFC6F60317B002902D0019800F044F8A078002100F028FF2046FFF7B0
:406EC000BDFAA07801F07CF8A07800F0C5FC0B20FFF712F900F004FCFEBD70B50E46054602F05CFB044606702846FEF7D1FE014601204140204661700C3001F000F8002D4D
:406F000010D02889608028464030C1782171002E10D169796171018AE180418A2181808A608107E01820FDF70DFEC005C00F207100206080204602F0A6FF70BD0A4610B5AE
:406F40000146002003F096F810BD10B50AF012F910BD000000B50146FFF74AFA002801D0002000E00348002802D002898A4200D0002000BD3414002038B504468034606832
:406F8000002806D168460AF08FFB002801D100986060606838BD000010B5014600F040FB0128887802D0FEF77DFE10BD88214843024940186030007F10BD00001414002027
:406FC00070B5054604464035A87F012811D1A1788820084A484380186030067F3046FEF7AFFF002805D10220A877A078314601F0ADF870BD1414002010B50E4CE079002853
:4070000016D0FFF726F80C48827FC17F808B00F06FFB01280CD10020E07100F0EEFE0446AC20FDF78FFD010B02D0204600F00EFA10BD0000C41400201414002070477047BC
:40704000490510B5490F0B00FDF7BEFA060704080C0C0F073E21FFF7ABFE10BD0821FFF7E1FE10BDFFF7EFFE10BDFFF7CBFE10BDF8B507460025002D01D0002600E0204E44
:4070800000F070FE3046403044890021418100F08FFE304600F0B9FA01282BD1A00702D52846FFF747FEE00602D52846FFF792FEA00601D5FEF7CDFF600601D500F0CCFA1A
:4070C000200602D5284600F01DF8600702D5284600F0FEF9380402D52846FFF753FB780402D52846FFF740FBE00703D021463046FFF7A6FF6D1C2D062D0EBCD0F8BD00006C
:4071000034140020F8B5002801D0002400E0204C002C39D025464035A878012834D1E98AA07801F073FA2046FEF7B2FD01282BD002F038FA2A8A6179FFF78AF9064601F0EF
:4071400089F82836B1B2204602F03CF8E98AA07801F05CFAFF206130FDF7F4FC6E8A0D4F0146002E11D0304648430B49FCF792F80004000C01D0401C80B27880288A704393
:4071800081B2A07801F0EAFAF8BD0020F5E7000034140020460200207102000070B50D46124A010001D0002401E014462034002C1BD0204600F034FA01280AD18820484390
:4071C00080186030007FFEF7BBFE002801D101F0F5FE20464030817E491B8176204600F027FC2089294602F0E6FE70BD1414002070B503460088FFF7ADFE040013D000F0E2
:4072000004FA00280FD02079092819D02546997840352973204601F047FF0646A878012803D0AA8A02E0022070BDEA880A20424301212046FEF764FF002E01D109202071E4
